:020000040000FA
:100000000C9462000C948A000C948A000C948A0070
:100010000C948A000C948A000C948A000C948A0038
:100020000C948A000C948A000C948A000C94DF03D0
:100030000C948A000C948A000C948A000C948A0018
:100040000C943D030C948A000C94AD030C9487032C
:100050000C948A000C948A000C948A000C948A00F8
:100060000C948A000C948A000000000024002700F1
:100070002A000000000023002600290000000000E4
:10008000250028002B0004040404040404040202D4
:100090000202020203030303030301020408102007
:1000A0004080010204081020010204081020000012
:1000B0000008000201000003040700000000000027
:1000C00000009B0411241FBECFEFD8E0DEBFCDBFE0
:1000D00011E0A0E0B1E0E4EEF1E102C005900D9284
:1000E000A03CB107D9F728E0A0ECB1E001C01D9217
:1000F000A63CB207E1F710E0C2E6D0E004C02197C9
:10010000FE010E94EA08C136D107C9F70E94010525
:100110000C94F0080C9400001092AC021092AB0208
:1001200026E030E03093AA022093A902FC01ADEA58
:10013000B2E09C012C5D3F4F45E050E08081918111
:100140008D939D938281938153969C938E93529726
:1001500084819581853091054CF497965C934E93FC
:1001600096973696E217F30749F7089597969C936A
:100170008E939697F6CF833081F028F4813099F0F2
:100180008230A9F008958730A9F08830C9F0843012
:10019000B1F4809180008F7D03C0809180008F77C3
:1001A00080938000089584B58F7784BD089584B5C9
:1001B0008F7DFBCF8091B0008F778093B000089542
:1001C0008091B0008F7DF9CF1F93CF93DF93282FBD
:1001D00030E0F901E255FF4F8491F901E656FF4FF7
:1001E000D491F901EA57FF4FC491CC23A9F0162FFF
:1001F00081110E94BB00EC2FF0E0EE0FFF1FE458CE
:10020000FF4FA591B4918FB7F894EC91111108C0EC
:10021000D095DE23DC938FBFDF91CF911F9108959E
:10022000DE2BF8CF3FB7F8948091D4019091D5019F
:10023000A091D601B091D70126B5A89B05C02F3F4C
:1002400019F00196A11DB11D3FBFBA2FA92F982FFC
:100250008827BC01CD01620F711D811D911D42E0F7
:10026000660F771F881F991F4A95D1F70895AF929F
:10027000BF92CF92DF92EF92FF920F931F93CF9393
:10028000DF936C017B018B01040F151FEB015E01F5
:10029000AE18BF08C017D10759F06991D601ED918A
:1002A000FC910190F081E02DC6010995892B79F729
:1002B000C501DF91CF911F910F91FF90EF90DF90DB
:1002C000CF90BF90AF900895FC01538D448D252FA2
:1002D00030E0842F90E0821B930B541710F0CF96E0
:1002E000089501970895FC01918D828D981761F012
:1002F000A28DAE0FBF2FB11D5D968C91928D9F5F29
:100300009F73928F90E008958FEF9FEF0895FC0107
:10031000918D828D981731F0828DE80FF11D858DBA
:1003200090E008958FEF9FEF0895FC01918D228D4D
:10033000892F90E0805C9F4F821B91098F739927D2
:10034000089588ED91E00E94950121E0892B09F440
:1003500020E0822F089580E090E0892B29F00E9410
:10036000A10181110C9400000895FC01A48DA80F37
:10037000B92FB11DA35ABF4F2C91848D90E00196E7
:100380008F739927848FA689B7892C93A089B18907
:100390008C91837080648C93938D848D981306C0A8
:1003A0000288F389E02D80818F7D80830895EF920C
:1003B000FF920F931F93CF93DF93EC0181E0888F1F
:1003C0009B8D8C8D98131AC0E889F989808185FFEF
:1003D00015C09FB7F894EE89FF896083E889F98991
:1003E00080818370806480839FBF81E090E0DF9193
:1003F000CF911F910F91FF90EF900895F62E0B8DE6
:1004000010E00F5F1F4F0F731127E02E8C8D8E11A0
:100410000CC00FB607FCFACFE889F989808185FF07
:10042000F5CFCE010E94B501F1CFEB8DEC0FFD2F82
:10043000F11DE35AFF4FF0829FB7F8940B8FEA89C2
:10044000FB8980818062CFCFCF93DF93EC01888DD1
:100450008823B9F0AA89BB89E889F9898C9185FD3F
:1004600003C0808186FD0DC00FB607FCF7CF8C91CD
:1004700085FFF2CF808185FFEDCFCE010E94B501CF
:10048000E9CFDF91CF910895CF92DF92EF92FF9263
:10049000CF93DF93EC01603282E07807CCF5653BC7
:1004A000710514F064EB70E0898128E830E0281BC6
:1004B000310987FD3395220F331F220F331F690146
:1004C000330FEE08FF088A8128E532E0281B310946
:1004D00087FD3395220F331F220F331F032E000C8D
:1004E000440B550B2C193D094E095F09DB0177FFC1
:1004F00002C0B0E0A0E00E947D0824EB30E040E0C4
:1005000050E00E945308C20ED31EE41EF51EB60131
:10051000E881EC3070F5298188E890E0821B910930
:1005200027FD9395880F991F880F991F68177907E2
:100530007CF02A8188E592E0821B910927FD939542
:10054000880F991F880F991F681779070CF4CB0142
:100550000297880F991F4FB7F8942E2F30E0F901BA
:10056000EE0FFF1FE20FF31FEB58FD4F92838183C5
:100570004FBFDF91CF91FF90EF90DF90CF90089524
:10058000FC0101900020E9F73197AF01481B590B9E
:10059000BC0188ED91E00C9437018F929F92AF924D
:1005A000BF920F931F93CF93DF93CDB7DEB7A19781
:1005B0000FB6F894DEBF0FBECDBF19A2423008F4CB
:1005C0004AE08E010F5D1F4F842E912CB12CA12C7F
:1005D000A50194010E948508E62FB901CA01EA30FD
:1005E000F4F4E05DD801EE938D01232B242B252B11
:1005F00079F790E080E0109719F0CD010E94C002D9
:10060000A1960FB6F894DEBF0FBECDBFDF91CF919C
:100610001F910F91BF90AF909F908F900895E95CCC
:10062000E1CFCF92DF92EF92FF92CF93DF9397FFCC
:100630001BC06B017C016DE288ED91E00E94D70147
:10064000EC0166277727CB016C197D098E099F097C
:100650004AE00E94CD028C0F9D1FDF91CF91FF9049
:10066000EF90DF90CF9008954AE0DF91CF91FF9017
:10067000EF90DF90CF900C94CD021F920F920FB6A7
:100680000F9211242F933F938F939F93AF93BF9318
:100690008091D0019091D101A091D201B091D3016C
:1006A0003091CF0123E0230F2D3758F50196A11D7E
:1006B000B11D2093CF018093D0019093D101A093DD
:1006C000D201B093D3018091D4019091D501A09132
:1006D000D601B091D7010196A11DB11D8093D4011F
:1006E0009093D501A093D601B093D701BF91AF915C
:1006F0009F918F913F912F910F900FBE0F901F9060
:10070000189526E8230F0296A11DB11DD2CF1F9286
:100710000F920FB60F9211242F933F934F935F9335
:100720006F937F938F939F93AF93BF93EF93FF93B9
:1007300088ED91E00E94B501FF91EF91BF91AF91DB
:100740009F918F917F916F915F914F913F912F91E9
:100750000F900FBE0F901F9018951F920F920FB61B
:100760000F9211242F938F939F93EF93FF93E09118
:10077000E801F091E9018081E091EE01F091EF0153
:1007800082FD1BC090818091F1018F5F8F7320915A
:10079000F201821741F0E091F101F0E0E852FE4FE2
:1007A000958F8093F101FF91EF919F918F912F9100
:1007B0000F900FBE0F901F9018958081F4CF1F925D
:1007C0000F920FB60F9211242F933F934F935F9385
:1007D0006F937F938F939F93AF93BF93CF93DF9349
:1007E000EF93FF938091C001C0919902D0E087FF01
:1007F00024C010928500109284008091C0018F5F08
:100800008093C0018091C001082E000C990B8C17B9
:100810009D0724F48091C0018C30C4F18091840044
:1008200090918500049680349C4908F47AC08091A8
:10083000840090918500049676C08091C001082EB6
:10084000000C990B8C179D07C4F6E091C0018E2F08
:10085000EE0F990BFC01EE0FFF1FE80FF91FEB588D
:10086000FD4F808186FFC9CFE091C0018E2FEE0F32
:10087000990BFC01EE0FFF1FE80FF91FEB58FD4F1E
:10088000808160E08F730E94E400B7CF20918400E4
:1008900030918500E091C0018E2FEE0F990BFC0185
:1008A000EE0FFF1FE80FF91FEB58FD4F818192817A
:1008B000820F931F9093890080938800E091C0017C
:1008C0008E2FEE0F990BFC01EE0FFF1FE80FF91FA3
:1008D000EB58FD4F808186FF11C0E091C0018E2F43
:1008E000EE0F990BFC01EE0FFF1FE80FF91FEB58FD
:1008F000FD4F808161E08F730E94E400FF91EF91D2
:10090000DF91CF91BF91AF919F918F917F916F9127
:100910005F914F913F912F910F900FBE0F901F90BD
:10092000189580E49CE990938900809388008FEF6C
:100930008093C001E3CF1092DB011092DA0188EEC0
:1009400093E0A0E0B0E08093DC019093DD01A09300
:10095000DE01B093DF018CE491E09093D9018093A4
:10096000D80185EC90E09093E5018093E40184EC5C
:1009700090E09093E7018093E60180EC90E0909303
:10098000E9018093E80181EC90E09093EB01809382
:10099000EA0182EC90E09093ED018093EC0186EC0B
:1009A00090E09093EF018093EE011092F10110928C
:1009B000F2011092F3011092F401EAE9F2E026EC60
:1009C00038E04FEF68EB7BE0809199028C30B8F40F
:1009D00091E0980F90939902808390E0DC01AA0F38
:1009E000BB1FA80FB91FAB58BD4F12967C936E93D7
:1009F0001197E15BFF4F2E173F0731F708954083B2
:100A0000F8CFCF93DF93CDB7DEB7C854D1090FB677
:100A1000F894DEBF0FBECDBF789484B5826084BDEC
:100A200084B5816084BD85B5826085BD85B58160F2
:100A300085BD80916E00816080936E001092810070
:100A4000809181008260809381008091810081602B
:100A500080938100809180008160809380008091EC
:100A6000B10084608093B1008091B0008160809378
:100A7000B00080917A00846080937A0080917A003F
:100A8000826080937A0080917A00816080937A00FE
:100A900080917A00806880937A001092C100E09182
:100AA000E801F091E90182E08083E091E401F091B6
:100AB000E5011082E091E601F091E7018FEC80837F
:100AC0001092F001E091EC01F091ED0186E080835D
:100AD000E091EA01F091EB01808180618083E091F7
:100AE000EA01F091EB01808188608083E091EA0166
:100AF000F091EB01808180688083E091EA01F091C0
:100B0000EB0180818F7D808382E090E09093C20131
:100B10008093C101AAE9B2E046E030E020E05CE069
:100B200002E014E18091C1019091C20128173907B8
:100B30000CF0A1C08C918C3008F06BC0F901E0562C
:100B4000FF4FF490F901E457FF4F84918823A1F0FF
:100B500090E0880F991FFC01E859FF4F659174914F
:100B6000FC01E458FF4F859194918FB7F894FB01F5
:100B70009081F92AF0828FBF8C91682F70E0FB0181
:100B8000EE0FFF1FE60FF71FEB58FD4F9081907C93
:100B9000642F6F73962B908311961C921197129667
:100BA0001C921297652F0E94B608859F7001112430
:100BB00070E060E06701C60ED71EF601EE0FFF1F62
:100BC000EC0DFD1DEB58FD4F908196FD15C06F5F3C
:100BD0007F4F6C30710571F781110EC0109280004B
:100BE000009381001092850010928400B19A809148
:100BF0006F00826080936F00EC918E2F90E0FC017B
:100C0000EE0FFF1FE80FF91FEB58FD4F8081806446
:100C1000808314961C921E92139716961C921E9215
:100C2000159717961D921D921D921C921A971B964E
:100C30001D921D921D921C921E9750961C921E9200
:100C40001F9752961C921E925197BD016D5E7F4F69
:100C5000FB01812F11928A95E9F76C5E7F4FFB01B2
:100C6000812F11928A95E9F72F5F3F4FA15BBF4F0C
:100C70004F5F4F7357CF02EA202E00E0302EF10174
:100C80002491EEE8F0E084918823C9F090E0880F89
:100C9000991FFC01E859FF4FA591B491FC01E4585C
:100CA000FF4F459154913FB7F8949C91822F8095C6
:100CB00098239C93DA019C9189238C933FBF84E213
:100CC000E0E0F1E0DE01959601900D928A95E1F762
:100CD000CE0185960E948C0084E2E4E2F1E0DE0120
:100CE000119601900D928A95E1F7CE0101960E942E
:100CF0008C008FB7F894C090D001D090D101E090D3
:100D0000D201F090D3018FBFC092CB01D092CC0121
:100D1000E092CD01F092CE018091C7019091C8017F
:100D2000A091C901B091CA01A7019601281B390BF6
:100D30004A0B5B0BDA01C90184369105A105B105A7
:100D4000F0F0C092C701D092C801E092C901F092C0
:100D5000CA01E6EBF0E08491F1019491EEE8F0E055
:100D60001491112361F081110E94BB00E12FF0E08A
:100D7000EE0FFF1FEE58FF4FA591B4918C9180911B
:100D8000C3019091C401A091C501B091C601A70112
:100D90009601281B390B4A0B5B0BDA01C901803124
:100DA0009742A105B10508F486C0C092C301D09254
:100DB000C401E092C501F092C601C701B60128EE58
:100DC00033E040E050E00E948508CA01B9014AE0E2
:100DD0000E94CD028AE591E00E94C0020AE912E079
:100DE000C12CD12C76018091C1019091C201C8160D
:100DF000D9060CF060C08DE591E00E94C002C701E9
:100E0000B6010E94110382E791E00E94C00284E6CD
:100E100091E00E94C002D80113966D917C91072E3B
:100E2000000C880B990B0E94110385E791E00E944A
:100E3000C002F80165817681072E000C880B990BA2
:100E40000E94110387E891E00E94C002D8011B961E
:100E50006D917D918D919C911E974AE00E94CD02EB
:100E60008AE991E00E94C002F80167857089072E27
:100E7000000C880B990B0E9411038CEA91E00E94F0
:100E8000C002D80151966D917C91072E000C880B01
:100E9000990B0E9411038AE591E00E94C0028BE544
:100EA00091E00E94C002BFEFCB1ADB0AEB0AFB0AFB
:100EB000015B1F4F98CF4090CB015090CC016090C8
:100EC000CD017090CE010AE912E0F12CE12CA09046
:100ED000C101B090C201EA14FB040CF059C0F80142
:100EE000238134816581768126173707B9F001881F
:100EF000F289E02DEE0FFF1F4FE44E9DC0014F9D84
:100F0000900D1124E80FF91FE656FD4F43AD54AD87
:100F1000443651054CF0C8010E944402FFEFEF1A1D
:100F2000FF0A015B1F4FD3CFCC24C394D12C2617CB
:100F300037071CF0CC24CA94DC2CF80187819085FB
:100F4000A185B28553014201881A990AAA0ABB0AEF
:100F500088EE93E0BA010E94C208072E000C880BAD
:100F6000990B86169706A806B906C0F247825086E6
:100F700061867286B9016C0D7D1DC8010E94440214
:100F8000F80183819481C80ED91ED482C382C6CF52
:100F90000AE912E0D12CC12CCA14DB040CF052C0B7
:100FA000D8015196ED90FC9052971F968D919C918F
:100FB0005097E816F9060CF03FC01B968D919D9155
:100FC0000D90BC91A02DA3019201281B390B4A0B57
:100FD0005B0BCA01B90128EE33E040E050E00E940B
:100FE00085086FE46C9DC0016D9D900D1124F70183
:100FF000EE0FFF1FE80FF91FE656FD4F87A190A5E2
:10100000092E000CAA0BBB0B281739074A075B07F0
:1010100098F0D8011B964D925D926D927C921E972E
:101020008389948916969C938E931597BFEFEB1A3C
:10103000FB0AF801F28AE18AFFEFCF1ADF0A015BAF
:101040001F4FAACF0E9412014B015C018AE0C82EFB
:10105000D12CE12CF12C0E941201681979098A091E
:101060009B09683E734081059105A8F321E0C21AEF
:10107000D108E108F10838EE830E33E0931EA11C7D
:10108000B11CC114D104E104F10429F780E090E01F
:10109000892B09F42ECE0E94A101882309F429CEC0
:1010A0000E94000026CE052E97FB1EF400940E949D
:1010B0006A0857FD07D00E94850807FC03D04EF44C
:1010C0000C946A0850954095309521953F4F4F4FAD
:1010D0005F4F089590958095709561957F4F8F4FE4
:1010E0009F4F08950E94A708A59F900DB49F900D53
:1010F000A49F800D911D11240895B7FF0C947208D0
:101100000E947208821B930B0895A1E21A2EAA1B5B
:10111000BB1BFD010DC0AA1FBB1FEE1FFF1FA217A7
:10112000B307E407F50720F0A21BB30BE40BF50BA4
:10113000661F771F881F991F1A9469F7609570952D
:10114000809590959B01AC01BD01CF010895A29FB0
:10115000B001B39FC001A39F700D811D1124911D8B
:10116000B29F700D811D1124911D0895991B79E086
:1011700004C0991F961708F0961B881F7A95C9F727
:101180008095089597FB072E16F4009407D077FDFD
:1011900009D00E94D60807FC05D03EF490958195B1
:1011A0009F4F0895709561957F4F0895AA1BBB1BB3
:1011B00051E107C0AA1FBB1FA617B70710F0A61B57
:1011C000B70B881F991F5A95A9F780959095BC0178
:1011D000CD010895EE0FFF1F0590F491E02D0994C5
:1011E000F894FFCF010000005A00320019005A00A5
:1011F000A6FF0A005A000A000F005A00E2FF28006A
:101200005A00010019005A00010000005A00D8FFDE
:101210000F005A005A000A005A000A0005005A003E
:10122000E2FF14005A00010019005A0000000000FB
:10123000D7013701640124029501730187010D0A6A
:1012400000536572766F200050726576696F757312
:1012500020416E676C653A20002C204375727265E0
:101260006E7420416E676C653A20002C20507265C8
:1012700076696F75732044656C61793A20002C2083
:101280004E756D204D6F76656D656E74733A2000F6
:101290002C204D6F76656D656E7420496E6465789F
:0412A0003A200000F0
:107E0000112484B714BE81FFF0D085E080938100F7
:107E100082E08093C00088E18093C10086E0809377
:107E2000C20080E18093C4008EE0C9D0259A86E02C
:107E300020E33CEF91E0309385002093840096BBD3
:107E4000B09BFECF1D9AA8958150A9F7CC24DD24C4
:107E500088248394B5E0AB2EA1E19A2EF3E0BF2EE7
:107E6000A2D0813461F49FD0082FAFD0023811F036
:107E7000013811F484E001C083E08DD089C08234E0
:107E800011F484E103C0853419F485E0A6D080C0E4
:107E9000853579F488D0E82EFF2485D0082F10E0AE
:107EA000102F00270E291F29000F111F8ED06801E7
:107EB0006FC0863521F484E090D080E0DECF843638
:107EC00009F040C070D06FD0082F6DD080E0C81688
:107ED00080E7D80618F4F601B7BEE895C0E0D1E017
:107EE00062D089930C17E1F7F0E0CF16F0E7DF06D8
:107EF00018F0F601B7BEE89568D007B600FCFDCFD4
:107F0000A601A0E0B1E02C9130E011968C91119780
:107F100090E0982F8827822B932B1296FA010C0160
:107F200087BEE89511244E5F5F4FF1E0A038BF0790
:107F300051F7F601A7BEE89507B600FCFDCF97BE46
:107F4000E89526C08437B1F42ED02DD0F82E2BD052
:107F50003CD0F601EF2C8F010F5F1F4F84911BD097
:107F6000EA94F801C1F70894C11CD11CFA94CF0C13
:107F7000D11C0EC0853739F428D08EE10CD085E9AC
:107F80000AD08FE07ACF813511F488E018D01DD067
:107F900080E101D065CF982F8091C00085FFFCCF94
:107FA0009093C60008958091C00087FFFCCF809118
:107FB000C00084FD01C0A8958091C6000895E0E648
:107FC000F0E098E1908380830895EDDF803219F02E
:107FD00088E0F5DFFFCF84E1DECF1F93182FE3DFCA
:107FE0001150E9F7F2DF1F91089580E0E8DFEE27F6
:047FF000FF270994CA
:027FFE00040479
:00000001FF
