:10000000E2C0000008C1000006C1000004C10000F9
:1000100002C1000000C10000FEC00000FCC00000E2
:10002000FAC000000C943612F6C000000C94F420C4
:10003000F2C00000F0C00000EEC00000ECC0000004
:100040000C94DA22E8C000000C94C6250C94F82524
:10005000E2C00000E0C00000DEC00000DCC0000024
:10006000DAC00000D8C00000001D3A2774694E5362
:10007000E8F5D2CF9C81A6BBCDD0F7EAB9A4839E88
:1000800025381F02514C6B76879ABDA0F3EEC9D478
:100090006F7255481B06213C4A57706D3E23041968
:1000A000A2BF9885D6CBECF1130E2934677A5D4058
:1000B000FBE6C1DC8F92B5A8DEC3E4F9AAB7908D48
:1000C000362B0C11425F78659489AEB3E0FDDAC738
:1000D0007C61465B0815322F5944637E2D30170A28
:1000E000B1AC8B96C5D8FFE2263B1C01524F687518
:1000F000CED3F4E9BAA7809DEBF6D1CC9F82A5B808
:10010000031E3924776A4D50A1BC9B86D5C8EFF2F7
:100110004954736E3D20071A6C71564B1805223FE7
:100120008499BEA3F0EDCAD735280F12415C7B66D7
:10013000DDC0E7FAA9B4938EF8E5C2DF8C91B6ABC7
:10014000100D2A3764795E43B2AF8895C6DBFCE1B7
:100150005A47607D2E3314097F6245580B16312CA7
:10016000978AADB0E3FED9C4000000080002010088
:100170000003040700000000000000000102040862
:100180001020408001020408102001020408102001
:10019000040404040404040402020202020203032D
:1001A00003030303000000002300260029000000D1
:1001B0000000250028002B0000000000240027007C
:1001C0002A0073011D2611241FBECFEFD8E0DEBF29
:1001D000CDBF12E0A0E0B1E0E0E6F1E502C005909D
:1001E0000D92A43CB107D9F724E0A4ECB2E001C021
:1001F0001D92A33EB207E1F710E0C3EED0E004C0C9
:100200002197FE010E942327C13ED107C9F70E9412
:10021000571E0C94AE28F4CECF92DF92EF92FF924D
:100220000F931F93E82FF92F05C0015011092109E1
:10023000310961F1908196239417B9F305C00150FB
:1002400011092109310911F1908196239413F7CFF7
:10025000C12CD12CE12CF12C0AC08FEFC81AD80A7E
:10026000E80AF80A0C151D052E053F0579F0808176
:100270008623841791F36C2D7D2D8E2D9F2D1F913C
:100280000F91FF90EF90DF90CF90089560E070E0C5
:1002900080E090E01F910F91FF90EF90DF90CF9062
:1002A0000895611102C00C94E3236130E1F362E030
:1002B000FACF0E944C2421E0019709F020E0822F20
:1002C000089570E023E0829FC00111248C539D4F5C
:1002D0000C94452270E023E0829FC00111248C53CE
:1002E0009D4F0C94812284EC92E00E94AD2187EC1A
:1002F00092E00C94AD21CF93C62F61E00E94E323DE
:1003000060E08C2FCF910C94E3234F925F926F9219
:100310007F92AF92BF92CF92DF92EF92FF920F93B4
:100320001F93CF93DF935C01162FC42FD22F61113F
:1003300004C061E0842F0E94E32360E08C2F0E94C0
:100340001F240E9424232B013C010E9424236419B2
:100350007509860997096630710581059105A8F32D
:1003600061E08C2F0E941F240E9424232B013C015A
:10037000C02ED12CF12CE12C0E9424236419750984
:1003800086099709C616D706E806F906A8F760E0B9
:100390008C2F0E941F24111104C060E08D2F0E9439
:1003A000E32320E432E44FE050E061E08D2F0E942F
:1003B0007424F5016083718382839383DF91CF91ED
:1003C0001F910F91FF90EF90DF90CF90BF90AF9073
:1003D0007F906F905F904F900895CF92DF92EF9251
:1003E000FF926B017C019F7720E030E040E859E507
:1003F0000E94581F87FF2BC020E030E040E05FE301
:10040000C701B6010E948D2087FD0EC020E030E0BC
:1004100040E05FE3C701B6010E94E11EFF90EF904C
:10042000DF90CF900C94C51F20E030E040E05FEB00
:10043000C701B6010E948D20181684F420E030E038
:10044000A901C701B6010E9491206B017C01C7017F
:10045000B601FF90EF90DF90CF90089520E030E05C
:1004600040E05FE3C701B6010E94E01EFF90EF90FD
:10047000DF90CF900C94451F4F925F926F927F92C6
:100480008F929F92AF92BF92CF92DF92EF92FF92A4
:100490000F93CF93DF9300D000D0CDB7DEB780911C
:1004A000BB0481111092BB040AE025E044E061E046
:1004B000CE0101962ADF69817A818B819C810E941D
:1004C000881F2EEA34ED43EB59E30E94912020E08F
:1004D00030E040E05FE30E9491202091BB01309129
:1004E000BC014091BD015091BE010E9491206093DA
:1004F000D0047093D1048093D2049093D3042091BC
:10050000A2013091A3014091A4015091A5010E9444
:10051000581F18160CF47FC18091B3019091B4015B
:10052000A091B501B091B6018093D4049093D50405
:10053000A093D604B093D704C090D404D090D5042F
:10054000E090D604F090D70420E030E0A901C70184
:10055000B6010E94581F87FD67C120E030E044E3E8
:1005600053E4C701B6010E948D2064EB1816DCF03D
:10057000C701B60132DF6B017C0120E030E040E8CA
:1005800053E40E94581F6FEF87FF0DC020E030E05A
:10059000A901C701B6010E948D2087FD45C1C70191
:1005A000B6010E945C1F80E095DEC090A701D0904C
:1005B000A801E090A901F090AA01A701960160911D
:1005C000B3047091B4048091B5049091B6040E9474
:1005D000581F882341F0C092B304D092B404E09233
:1005E000B504F092B60482E064DE8093DC0490915E
:1005F000A60189131BC18091AB019091AC01A09120
:10060000AD01B091AE018093D8049093D904A0932A
:10061000DA04B093DB04C090D804D090D904E09001
:10062000DA04F090DB0420E030E0A901C701B60154
:100630000E94581F87FD03C120E030E044E353E4EB
:10064000C701B6010E948D2064EB1816DCF0C701CB
:10065000B601C3DE6B017C0120E030E040E853E4EA
:100660000E94581F6FEF87FF0DC020E030E0A90106
:10067000C701B6010E948D2087FDE1C0C701B60108
:100680000E945C1F81E026DE81E090E00E94DA118A
:10069000409112035091130360911403709115035C
:1006A00090E080E00E94D611809022039090230376
:1006B000A0902403B090250320E030E040E85FEBF9
:1006C000C501B4010E94581F882331F1C090120364
:1006D000D0901303E0901403F0901503A701960146
:1006E000C501B4010E94E01E4B015C0120E030E036
:1006F00040E054E3C701B6010E9491209B01AC0188
:10070000C501B4010E948D20181634F083EC91E0ED
:100710009093FD028093FC0280912603882331F0A0
:1007200083EC91E09093FD028093FC02C09016034D
:10073000D0901703E0901803F09019038FEFC81AB8
:10074000D80AE80AF80AC0921603D0921703E0927A
:100750001803F0921903C114D104E104F10499F4CF
:1007600080911A0390911B03A0911C03B0911D036B
:100770000196A11DB11D80931A0390931B03A093B2
:100780001C03B0931D0380901E0390901F03A09044
:100790002003B090210360911A0370911B03809194
:1007A0001C0390911D030E94881FA50194010E94C3
:1007B000912020E030E040E85FE40E9491202B018E
:1007C0003C01C701B6010E94881FA50194010E9447
:1007D00091209B01AC01C301B2010E94E11E609314
:1007E00012037093130380931403909315030F90D7
:1007F0000F900F900F90DF91CF910F91FF90EF909E
:10080000DF90CF90BF90AF909F908F907F906F9030
:100810005F904F9008958091B7019091B801A09199
:10082000B901B091BA0180CE60E0BDCE8091AF0138
:100830009091B001A091B101B091B201E4CE60E01D
:1008400021CFCF92DF92EF92FF921F93CF93DF934E
:10085000ACEFB2E08BE2ED0119928A95E9F740E046
:1008600050E060E87FEB96964D935D936D937C939B
:1008700099974DEC5CEC6CEC7DE392964D935D9317
:100880006D937C9395974DE156E06CEF7EE714965F
:100890004D935D936D937C93179742EB51E164E523
:1008A00075E318964D935D936D937C931B9742E58A
:1008B00052EF60E67CE91C964D935D936D937C93BB
:1008C0001F9741E355E563E977EB50964D935D93B0
:1008D0006D937C935397C0EFD2E01396DC93CE9345
:1008E0001297EEEDF2E0F983E88387ED91E09183D2
:1008F0008083938382839583848397838683918780
:100900008087938782879587848797878687918B4F
:10091000808B80E193E09D838C8380E093E09B83D8
:100920008A8382E193E09F838E83E0EDF4E08DE0A3
:10093000EF0119928A95E9F7CBEAD4E085E2FE014E
:1009400011928A95E9F724ED32E08AE0F9011192DB
:100950008A95E9F7EAECF2E05596FC93EE9354970A
:1009600081E190E09183808380E891E093838283AA
:100970008EE591E09583848382E291E0978386837C
:1009800086E091E09187808711E019A3C12CD12CDA
:100990007601C394CC86DD86EE86FF8665E084E032
:1009A000AADC188A1BA3CD8EDE8EEF8EF8A269E03A
:1009B00080E087DC18821CA38091A7019091A80198
:1009C000A091A901B091AA0188879987AA87BB87BE
:1009D000C982DA82EB82FC8260E082E062DC1D8305
:1009E0001AA3C98EDA8EEB8EFC8E68E081E0DF916F
:1009F000CF911F91FF90EF90DF90CF9062CC8091CC
:100A0000AB04811103C081E08093AB040895EF92A1
:100A1000FF920F931F93CF93DF93EA01F901DC015B
:100A20001496ED90FC90159712964D915C9113974A
:100A30004E0D5F1D2881398118960D911C911997D3
:100A40000217130730F00D911C911197012B09F437
:100A500041C08A01021B130BDC0118968D919C91F9
:100A60008E199F09800F911F86179707DCF1C90126
:100A7000860F971F8417950778F4718360833383FB
:100A80002283158214821782168288819981680FC9
:100A9000791F7983688316C011830083338322838F
:100AA000601B710B7583648390E080E01616170657
:100AB00014F49E2D8F2D96838783D701A60FB71F21
:100AC000B983A88380E0DF91CF911F910F91FF90B0
:100AD000EF90089518968D919C91821B930B861729
:100AE00097075CF681E0EFCFCF92DF92EF92FF9213
:100AF000CF93DF936B0184E4869FE001879FD00D45
:100B00001124C95DDC4F8AA99BA9009721F00E949E
:100B10000C281BAA1AAA84E48C9DF0018D9DF00D6F
:100B20001124E95DFC4F86A997A9009711F00E9456
:100B30000C2884E48C9DF0018D9DF00D1124E95D5D
:100B4000FC4F138A128A168A178A108E118E128E03
:100B5000138E148E158E168E178E10A211A281E0A0
:100B600090E093A382A315A214A216A217A210A626
:100B700011A613A612A615A614A616A617A610AAA5
:100B800011AA13AA12AA15AA14AA17AA16AA11AE74
:100B900010AE12AE13AE14AE15AEDF01DE961D928E
:100BA0001D921D921C921397EE5BFF4F11821082D3
:100BB000DF91CF91FF90EF90DF90CF900895CF938A
:100BC000DF93FB01DC016D917C91DB011696CD91E9
:100BD000DC918081918123E0880F991F2A95E1F7AC
:100BE000AA81BB81A80FB91F8D919C911197248573
:100BF0003585220F331FEB016A817B81EB01C20F28
:100C0000D31F0990D881C02D14962D913C9161E09D
:100C100070E0232B11F062E070E0C69F9001C79F47
:100C2000300DD69F300D1124A085B1852A9FB001CB
:100C30002B9F700D3A9F700D1124A481B5812A9FBE
:100C4000F0012B9FF00D3A9FF00D11248E0F9F1F86
:100C5000FA019183808373836283DF91CF9108953A
:100C60002F923F924F925F926F927F928F929F92BC
:100C7000AF92BF92CF92DF92EF92FF920F931F93AA
:100C8000CF93DF9300D000D000D0CDB7DEB7DC012A
:100C90001496ED91FC910190F081E02D8085918575
:100CA0009A838983A281B381BC83AB83FB0181904A
:100CB0009190A190B190C12CD12C7601C814D90487
:100CC000EA04FB04CCF026960FB6F894DEBF0FBE04
:100CD000CDBFDF91CF911F910F91FF90EF90DF90EB
:100CE000CF90BF90AF909F908F907F906F905F90CC
:100CF0004F903F902F900895448055806680778074
:100D00004085518562857385CF0140969E838D8392
:100D1000A081B1819D0183E0220F331F8A95E1F705
:100D2000A981BA8112968D919C91D901A80FB91F02
:100D30002D903C9011970484F585E02DEE0FFF1F58
:100D40008B819C81E80FF91F0190F081E02D1496B2
:100D50008D919C91892B41F581E090E0E89F900175
:100D6000E99F300DF89F300D1124249F8001259FAD
:100D7000100D349F100D1124249DC001259D900D50
:100D8000349D900D1124A8016D817E81820D931DEB
:100D90000E949528ED81FE81E00FF11F9FEFC91A97
:100DA000D90AE90AF90A8ACF82E090E0D7CFCF9337
:100DB000DF93DB01A154BE4F2C91222369F024E480
:100DC000269FF001279FF00D1124E95DFC4FEF01F4
:100DD00019922A95E9F71C9224E4269FF001279F97
:100DE000F00D1124E95DFC4F1482158216821782E2
:100DF0001186108613861286118A108A1786168627
:100E0000DF91CF9171CE2F923F924F925F926F926E
:100E10007F928F929F92AF92BF92CF92DF92EF928A
:100E2000FF920F931F93CF93DF93CDB7DEB7289731
:100E30000FB6F894DEBF0FBECDBF24E4269FF001AD
:100E4000279FF00D1124E95DFC4F04811581268157
:100E50003781012B022B032B09F4B7C02A016B0148
:100E60007C0110E000E0812C912C54013F019F0196
:100E7000285F3F4F3C832B83CF0104969E838D8355
:100E8000AB81BC818D919C91ED81FE81408151812E
:100E90006281738184169506A606B706E4F10E9466
:100EA0000C28D3011A968D919C91892B09F07EC054
:100EB00084E48C9DD0018D9DB00D1124A95DBC4FA3
:100EC000BC83AB8350968D919C910E940C28EB8142
:100ED000FC81868597850E940C28C701B60104DE37
:100EE000C701B60128960FB6F894DEBF0FBECDBF7E
:100EF000DF91CF911F910F91FF90EF90DF90CF90F6
:100F0000BF90AF909F908F907F906F905F904F9029
:100F10003F902F904CCFFC01E00FF11F92819983FD
:100F2000A381AA839F83A887312C212C2414350404
:100F300064F089819A810E940C28EFEF8E1A9E0A34
:100F4000AE0ABE0A0C5F1F4F9BCFAF81B885ED91F3
:100F5000FD91B887AF83309759F0848195810E94C5
:100F60000C28EF81F8853297808191810E940C28AE
:100F7000BFEF2B1A3B0ADACF800F911FFC0184814F
:100F800095810E940C282B813C812F5F3F4F3C8331
:100F90002B83025F1F4FF501808191812B813C8162
:100FA000241535054CF30E940C2882CF10E000E098
:100FB0001C821B8224E42C9DC0012D9D900D1124C8
:100FC000DC01AF5CBC4F5D01E6CF28960FB6F8940C
:100FD000DEBF0FBECDBFDF91CF911F910F91FF906C
:100FE000EF90DF90CF90BF90AF909F908F907F90C9
:100FF0006F905F904F903F902F90089524E4269F2C
:10100000F001279FF00D1124E95DFC4F828993893F
:101010000497029758F485E090E0938B828B8FEFD2
:101020009FEFDC01828F938FA48FB58F08952F924D
:101030003F924F925F926F927F928F929F92AF9268
:10104000BF92CF92DF92EF92FF920F931F93CF93B5
:10105000DF93CDB7DEB7AA970FB6F894DEBF0FBE09
:10106000CDBF9AA389A37E8B6D8B1A01098B1A8B36
:101070002B8B3C8B84E429893A89829F6001839F72
:10108000D00C11248601095D1C4F89899A89AB898E
:10109000BC89F80180839183A283B383AB01BC0137
:1010A000CD01B1DED601A55DBC4F84E0F101019018
:1010B0000D928A95E1F7F4E02F0E311C64E070E0A8
:1010C000D80114968D919C910E945627F801918722
:1010D0008087892B09F0F5C04D895E8969897A89F5
:1010E0008B899C8990DE81E0AA960FB6F894DEBFCA
:1010F0000FBECDBFDF91CF911F910F91FF90EF9069
:10110000DF90CF90BF90AF909F908F907F906F9027
:101110005F904F903F902F900895A9A5BAA58D910B
:101120009C91E98DFA8DE80FF91FF88FEF8BD101B3
:101130008D919C91880F991FA9A1BAA1ED91FC9165
:10114000E80FF91F80819181EF89F88D9183808369
:10115000D10114962D913D914D915C9117972BA340
:101160003CA34DA35EA362E070E08D899E890E943E
:101170005627EF89F88D93838283892B09F4ACCFAE
:10118000F8E02F0E311C412C512C32012BA13CA137
:101190004DA15EA142165306640675069CF02B8D88
:1011A0003C8D4D8D5E8D2F5F3F4F4F4F5F4F2B8F8F
:1011B0003C8F4D8F5E8F498D5A8D4C5F5F4F5A8F9C
:1011C000498F90C0610124E0C20ED11CD101ED9085
:1011D000FC90EE0CFF1CEF89F88D82819381E80E64
:1011E000F91E68E070E081E090E00E9456278C01D3
:1011F000D7018D939C93892B09F46ECF84E0F6017F
:10120000D80101900D928A95E1F7B8E02B0E311CC0
:10121000F80180819181A281B381181619061A06FE
:101220001B06DCF464E070E00E945627D801159696
:101230009C938E931497892B09F44ECFD12CC12CFB
:10124000812C912C5401F80180819181A281B3817C
:1012500088169906AA06BB0634F0FFEF4F1A5F0AFC
:101260006F0A7F0A93CFF801E480F580EC0CFD1C37
:1012700080E1F101DE01119601900D928A95E1F76E
:10128000F0E12F0E311CA701BE016F5F7F4FA9A1B6
:10129000BAA114968D919C9192DCF8018681978178
:1012A000D70112962D913C91820F931F97838683CD
:1012B000BFEF8B1A9B0AAB0ABB0AE4E0CE0ED11C2F
:1012C000C2CF1A8E198E1B8E1C8E1D8E1E8E18A3D9
:1012D0000F8FA8014C5F5F4F58A74FA3C801089616
:1012E0009AA789A7EFA1F8A580819181A281B381F6
:1012F0002B8D3C8D4D8D5E8D281739074A075B0776
:101300000CF40BCF6EE070E08D899E890E94562709
:10131000AF8DB8A11B969C938E931A97B12CA12CDC
:10132000D12CC12CF12CE12C24E4E989FA892E9FDF
:10133000C0012F9F900D11249C012F5C3C4F388FD2
:101340002F8B88248394912C4D895E89C416D506F1
:1013500054F184E4A989BA898A9F80018B9F100D7A
:101360001124095D1C4FF80115861486C70133E06E
:10137000880F991F3A95E1F70E947027D80151967E
:101380009C938E935097892B09F4A6CEC701880FA2
:10139000991F0E947027F80197878687892B09F487
:1013A0009BCE80E0A1CED1014D905D906D907D905F
:1013B0001D0177FC91CEEF89F88D008111810A0D16
:1013C0001B1DD80111969C928E9241145104610408
:1013D000710429F1C2010E947027F801958384836A
:1013E000892B09F479CEF801538242828481958158
:1013F00097838683918780871386128681E090E0A9
:1014000045284628472811F490E080E0E80EF91EB0
:10141000FFEFCF1ADF0A2EE0A20EB11C95CF159672
:101420001C921E921497DFCF2F923F924F925F92A1
:101430006F927F928F929F92AF92BF92CF92DF92E4
:10144000EF92FF920F931F93CF93DF93CDB7DEB749
:101450006A970FB6F894DEBF0FBECDBF9E8B8D8B03
:1014600049015A0184E4829F7001839FF00C11248A
:101470009701295D3C4F6901FB0180819181F90150
:10148000958B848BD701A35CBC4FFB01349684E021
:1014900001900D928A95E1F7D701AF5BBC4FFB013C
:1014A000389684E001900D928A95E1F7D701AB5B05
:1014B000BC4FFB013C9684E001900D928A95E1F7C8
:1014C000D701AB5ABC4FFB01709684E001900D929E
:1014D0008A95E1F78B010C5E1F4FF90186A597A550
:1014E000A0A9B1A918161906DCF5880F991F880F55
:1014F000991F0E947027F60193AB82AB892B09F4E8
:10150000D3C0312C212C412C512C32019601225D6B
:101510003F4F388F2F8BC601C2969A8F898FF496D2
:10152000FC8BEB8BB301A2012FEF421A520A620A25
:10153000720AEF89F88D80819181A281B381481769
:1015400059076A077B070CF47BC0F60184A995A9AB
:101550000E947027F60197AB86AB892B09F4A4C0D3
:10156000F80180819181A281B38124E4289DF0015A
:10157000299DF00D1124E95DFC4FAC01BD014D7FAB
:1015800021E030E0452B462B472B11F030E020E0E6
:1015900033A322A324E4289DF001299DF00D1124FA
:1015A000E95DFC4F0197A109B10921E030E0029704
:1015B000A105B10510F030E020E035A324A3D70148
:1015C000A35BBC4FF801349684E001900D928A959C
:1015D000E1F784E4889DF001899DF00D1124E95D17
:1015E000FC4F868D978DA0A1B1A1B7FF58C0B095D3
:1015F000A095909581959F4FAF4FBF4F82AF93AF0E
:10160000A4AFB5AF168E178E10A211A280E06A9615
:101610000FB6F894DEBF0FBECDBFDF91CF911F9103
:101620000F91FF90EF90DF90CF90BF90AF909F9081
:101630008F907F906F905F904F903F902F90089584
:10164000E98DFA8D808191819C01220D331D3A8BA9
:10165000298B80E1F801DE01119601900D928A95A7
:10166000E1F7005F1F4F49895A89BE016F5F7F4FC5
:10167000ED89FE8984819581A2DAEB89FC898081DC
:101680009181E989FA8922813381820F931FEB8945
:10169000FC8991838083F4E02F0E311C43CF12AE7E
:1016A00013AE14AE15AEB2CFC501B4011DDA81E0A0
:1016B000AECFCF92DF92EF92FF92CF93DF93109253
:1016C000AF0324E4269FF001279FF00D1124E95D6C
:1016D000FC4F15A614A630E020E0D12CC12CDF0170
:1016E0001A96C1E0D0E0C416D506F4F024E4269F93
:1016F000F001279FF00D1124E95DFC4F13A612A6FF
:1017000011AE10AEDF01DE961D921D921D921C924D
:10171000139782E090E0938B828BDF91CF91FF90C3
:10172000EF90DF90CF900895ED91FC911197E20F2B
:10173000F31FE280F3801E141F0454F4E480F5804C
:10174000F782E682F186E08613861286D183C08313
:10175000EFEFCE1ADE0A225F3F4FC5CF24E4269F6B
:10176000F001279FF00D1124E95DFC4F138A128AC6
:101770004ACB24E4269FF001279FF00D1124E95D58
:10178000FC4F8289938981309105C8F0853091059D
:1017900018F0059769F008958FEF9FEFDC01828FB5
:1017A000938FA48FB58F85E090E0938B828B089503
:1017B0008FEF9FEFDC01828F938FA48FB58F0895F9
:1017C00024E4249FD001259FB00D1124A95DBC4FB6
:1017D0002EE0AC01249FC001259F900D11241A9684
:1017E000ED91FC91E80FF91F81E08093AF038285B2
:1017F000938591878087408551852681378181E057
:1018000090E04217530711F090E080E091838083CD
:1018100008952F923F924F925F926F927F928F9294
:101820009F92AF92BF92CF92DF92EF92FF920F936F
:101830001F93CF93DF93CDB7DEB7C055D1090FB655
:10184000F894DEBF0FBECDBF9EAF8DAF4BA75CA798
:101850006DA77EA76801790184E4809FF001819FD4
:10186000F00D1124E95DFC4F2285338523963FAFAF
:101870002EAF239782899389029761F486A597A555
:10188000A0A9B1A9892B8A2B8B2BC9F584E090E004
:10189000938B828B84E48C9DF0018D9DF00D11243F
:1018A000E95DFC4F828993898230910509F037C246
:1018B00082AD93ADA4ADB5AD22242394312C18167E
:1018C00019061A061B060CF42FC2C05BDF4F0FB6B9
:1018D000F894DEBF0FBECDBFDF91CF911F910F9166
:1018E000FF90EF90DF90CF90BF90AF909F908F9040
:1018F0007F906F905F904F903F902F9008958489D4
:1019000095894DAD5EAD8417950721F606A917A9F7
:1019100018AE1FAA1BAA1CAA1DAA1EAA1F01CF012E
:101920008E9627969FAF8EAF2797DF01D296299686
:10193000BFAFAEAF2997F8962B96FFAFEEAF2B97C0
:1019400091012A5D3F4F2D963FAF2EAF2D97A101FC
:101950004E5D5F4F2F965FAF4EAF2F970A97619600
:101960009FAF8EAF61972796EEADFFAD2797808131
:101970009181A281B3812BA93CA94DA95EA9281709
:1019800039074A075B0744F081E090E0D101D9961E
:101990009C938E93D8977ECF2996AEADBFAD2997F5
:1019A000ED91FC912FA938ADE20FF31F42815381D5
:1019B0005AAF49AF50815FAF818121968FAF219798
:1019C0002B96AEADBFAD2B978D919C91892B21F1BC
:1019D0002D96EEADFFAD2D9780809180A280B380D3
:1019E0001AAB09AB5FA72196FFAD2197F8AB29ADE4
:1019F0003AAD369527953695279525963FAF2EAF6C
:101A000025971CAE1BAE2596AEADBFAD2597EBADB1
:101A1000FCADEA17FB070CF149AD5AAD6FAD21964D
:101A20007FAD2197C8010E94952889AD9AAD8C7F22
:101A3000080F191F2BA93CA94DA95EA92F5F3F4F85
:101A40004F4F5F4F2BAB3CAB4DAB5EAB4FA958AD8F
:101A50004C5F5F4F58AF4FAB86CF2F96AEADBFAD4B
:101A60002F978D919C91892B71F1EFA5F8A940805A
:101A7000518062807380A3019201C501B4010E946C
:101A8000581F181664F0A9A9BAA92D913D914D913E
:101A90005C91C501B4010E948D201816BCF1A30110
:101AA0009201C501B4010E94581F87FF0CC0E9A92B
:101AB000FAA92081318142815381C501B4010E947C
:101AC000581F882319F16196AEADBFAD61978D9116
:101AD0009C91892B09F445C0EFA5F8A9408051805D
:101AE00062807380A3019201C501B4010E948D2020
:101AF00018161CF5A9A9BAA92D913D914D915C919B
:101B0000C501B4010E94581F18165CF184E48C9D35
:101B1000F0018D9DF00D1124E95DFC4F868D978DB0
:101B2000A0A1B1A1892B8A2B8B2B69F183E090E0D6
:101B3000938B828B81E090E02CC0A3019201C501C0
:101B4000B4010E94581F81110CC0E9A9FAA9208193
:101B5000318142815381C501B4010E94581F87FD24
:101B6000D5CF2BAD3CAD2F5F3F4F3CAF2BAF49A93D
:101B70005AA94C5F5F4F5AAB49AB8FA598A9049601
:101B800098AB8FA740CF84E090E0938B828B86AD9B
:101B900097AD93A782A77ECEEBADFCAD80819181FE
:101BA000F401EE0FFF1FEE0FFF1FE80FF91FA081DA
:101BB000B1818C9181110AC0FFEF8F1A9F0AAF0A81
:101BC000BF0A8DA29EA2AFA2B8A68FC18330A1F397
:101BD0000280F381E02D2FA938ADE20FF31F808141
:101BE00091819AAB89AB892B39F34F5F5F4F6F4F70
:101BF0007F4F49875A876B877C879E01235E3F4FC3
:101C0000AE01475D5F4F64E070E0C8010E940705C8
:101C10008111D0C18D819E81AF81B8850496A11DAF
:101C2000B11D8D839E83AF83B8874D8D5E8DBE01C0
:101C30006B5D7F4F8F8D98A10E9495288BA19CA1F1
:101C4000009761F06D8D7E8DA5E2B0E0AC0FBD1FF9
:101C50006A0F7B1F49A15AA10E9495281CAA1BAAA2
:101C6000412C512C3201E9A9FAA980819181A281EC
:101C7000B381481659066A067B060CF09DCFE9A988
:101C8000FAA9848195812BA93CA9280F391F38AB6B
:101C90002FA7D90112966D917C919E01235E3F4F33
:101CA000AE01475D5F4FC8010E940705811182C1E7
:101CB000EFA5F8A982819381092E000CAA0BBB0B1A
:101CC0004D815E816F817885840F951FA61FB71F98
:101CD0008D839E83AF83B887608171814D8D5E8DCA
:101CE0008F8D98A10E9495288BA19CA1009761F0EF
:101CF000AFA5B8A96D917C912D8D3E8D620F731F9C
:101D000049A15AA10E949528BFEF4B1A5B0A6B0AA2
:101D10007B0AEBA9FCA93496FCABEBABA4CF312C2E
:101D2000212C049709F0D1CD8EE0EDADFEAD8E9F54
:101D300080018F9F100D112423962EAD3FAD239768
:101D4000020F131FD80112964D915C911397411504
:101D5000510509F4BACD16968D919C919AA789A741
:101D600080E1FE013196DF011D928A95E9F7C98A6B
:101D7000DA8AEB8AFC8A2114310409F458C084E41D
:101D80008C9DF0018D9DF00D1124E95DFC4FDF016C
:101D9000DE968D909D90AD90BC9082AD93ADA4AD3C
:101DA000B5AD88169906AA06BB0609F040C0F80131
:101DB000848195810084F185E02D349624E0DE0154
:101DC000559601900D922A95E1F72D893E89285F5D
:101DD0003F4F3E8B2D8BD80118966D917C911997B2
:101DE000260F371F19963C932E93189718962D910E
:101DF0003C911997480F591F241B350B37FD06C01E
:101E0000820F931F19969C938E93189784E48C9D50
:101E1000F0018D9DF00D1124EB59FC4FB1E08B1AB0
:101E20009108A108B10880829182A282B3829E01AA
:101E30002B5E3F4FAE01475D5F4F64E170E0C8012C
:101E40000E9407058111B6C08CE090E0A0E0B0E0F0
:101E50008D839E83AF83B8879E01235E3F4FAE0183
:101E6000475D5F4F64E070E0C8010E940705811183
:101E7000A1C080E190E0A0E0B0E08D839E83AF83BD
:101E8000B8874D8D5E8DBE01655D7F4F8F8D98A1AA
:101E90000E9495288BA19CA1009761F06D8D7E8D8D
:101EA000EBE2F0E0EC0FFD1F6E0F7F1F49A15AA17E
:101EB0000E9495281DA21EA21FA218A62DAD3EAD00
:101EC000220F331F38AF2FAB24E42C9DC0012D9D72
:101ED000900D1124895D9C4FAC014C5F5F4F5AAF50
:101EE00049AFDC011896BCAFABAF8DA09EA0AFA0F0
:101EF000B8A449855A856B857C85E9ADFAAD8081AA
:101F00009181A281B38188169906AA06BB060CF4BA
:101F100043CE452B462B472B09F4D7CC8AE190E0E2
:101F2000A0E0B0E089839A83AB83BC832DAD3EAD46
:101F3000C901330FAA0BBB0B8D879E87AF87B88B68
:101F40004D895E89BE016F5F7F4F8F89988D0E949A
:101F500095288B8D9C8D009761F06D897E8941E07D
:101F600050E04C0F5D1F640F751F498D5A8D0E9404
:101F7000952889A59AA5D80117969C938E931697B4
:101F800011961C921E92232809F49FCC84E48C9D08
:101F9000F0018D9DF00D1124EB59FC4F8081918152
:101FA000A281B3810196A11DB11D80839183A2837B
:101FB000B3838BCC232809F088CC84E48C9DF0017A
:101FC0008D9DF00D1124E95DFC4F81E090E095A717
:101FD00084A785E090E0938B828B77CCCF92DF92C1
:101FE000EF92FF920F931F9324E4269FF001279F07
:101FF000F00D1124E95DFC4F22893389211531054B
:1020000009F452C06B017C0121303105B1F482A585
:1020100093A59C012F5F3F4F33A722A7092E000CE9
:10202000AA0BBB0B028D138D248D358D8017910764
:10203000A207B307C9F5C7013CDB84E48C9DF0011E
:102040008D9DF00D1124E95DFC4F828993890397E2
:1020500059F582A593A59C012F5F3F4F33A722A777
:10206000092E000CAA0BBB0B468D578D60A171A1E8
:1020700084179507A607B707BCF086AD97AD93A761
:1020800082A784E090E0938B828B82AD93ADA4AD68
:10209000B5AD181619061A061B0634F4EE5BFF4F91
:1020A00081E090E0918380831F910F91FF90EF90EA
:1020B000DF90CF90089524E4269FF001279FF00D34
:1020C0001124E95DFC4F828993890497B1F482A5BC
:1020D00093A5019693A782A7092E000CAA0BBB0B10
:1020E00046895789608D718D84179507A607B707B4
:1020F00021F485E090E0938B828B08952F923F929C
:102100004F925F926F927F928F929F92AF92BF9207
:10211000CF92DF92EF92FF920F931F93CF93DF93B3
:10212000CDB7DEB72E970FB6F894DEBF0FBECDBF8A
:10213000DC0149835A836B837C83290184E4849F77
:10214000F001859FF00D1124E95DFC4F2288338852
:10215000C1010497029708F0D5C011961C921E92F7
:1021600013961C921E92129715861486912C812C20
:1021700090E080E08F019F01205F3F4F38872F83E1
:102180003F013CE0630E711CBF01625F7F4F7A87A5
:1021900069873A96FC87EB87EF81F885208131814A
:1021A000F30140815181E985FA85A080B1808415D1
:1021B00095050CF445C011965C934E9313963C9391
:1021C0002E9312971596BC92AE921497452BF9F464
:1021D000F5E02F163104D9F41092AF03F801828D87
:1021E000938DA48DB58DAE014F5F5F4F64E070E0BD
:1021F0008F3F9F4FAF4FBF4F09F079C080E290E013
:10220000D9D469817A818B819C81A201A7DA2E962B
:102210000FB6F894DEBF0FBECDBFDF91CF911F91F7
:102220000F91FF90EF90DF90CF90BF90AF909F9075
:102230008F907F906F905F904F903F902F90089578
:10224000EB85FC8560817181FB01E80DF91DFE873E
:10225000ED8760817181672B89F5E084F18462816B
:1022600073817E836D83668177816A01E3E0CC0CA4
:10227000DD1CEA95E1F72C0D3D1D440F551F4A0D5D
:102280005B1DFA0191838083F301408151814F5F8F
:102290005F4F51834083F901F382E282ED85FE8531
:1022A00073876287E616F70670F46E197F09F901E5
:1022B0007183608315821482178216820196FEE074
:1022C0008F0E911C69CFED85FE85C480D5804D8130
:1022D0005E814C0D5D1D4E195F09F90151834083EC
:1022E0006C197D0975836483D782C682E7CF8FE13D
:1022F00090E060D4F80113A612A681E090E0938BE1
:10230000828B85CF1586148611961C921E92139689
:102310001C921E9212977BCFEF92FF920F931F9306
:10232000CF93DF937C018B01EA0122D581111BC081
:102330008091C1019091C2010497F9F4DF91CF918E
:102340001F910F91FF90EF90089528ED38EB45E035
:1023500050E060E070E0CB01C1D7AE01B801C70129
:10236000CBD7C80194D78091B0039091B103892B4A
:10237000F9F68881882349F3DBCF83E090E09093DE
:10238000C2018093C101DACFCF93DF932091C101C5
:102390003091C2012430310531F0EB01ADD7CE01CF
:1023A000DF91CF9174C7DF91CF9108950C94781D80
:1023B0000C946D1D0C945B1D7AC70C94FF1C089542
:1023C00070E060E090E080E0AEC40895AF92BF920C
:1023D000CF92DF92EF92FF920F931F93CF93DF93F1
:1023E00000D0CDB7DEB75C018B0169017A0190E0C6
:1023F00080E0C114D104E104F10469F40F900F905E
:10240000DF91CF911F910F91FF90EF90DF90CF90D0
:10241000BF90AF9008959C2D8D2DC114D10421E063
:10242000E206F10410F09FEF8FEF9E012F5F3F4F08
:10243000492F582FB801C5010E94011E8F3F9807F0
:10244000E9F229813A81C21AD30AE108F108020FA0
:10245000131FCFCF40E855E260E070E090E080E0ED
:1024600000C026E08EE094E00C9466251F920F9247
:102470000FB60F9211242F933F934F935F936F9357
:102480007F938F939F93AF93BF93EF93FF9386E0D8
:102490008093B2008091B2038F5F8093B203893141
:1024A00021F41092B2030E943B1EFF91EF91BF9165
:1024B000AF919F918F917F916F915F914F913F91DC
:1024C0002F910F900FBE0F901F90189586E080936C
:1024D000B200A0E7B0E08C918E7F8C93E0EBF0E04F
:1024E00080818C7F8083E1EBF0E08081877F808337
:1024F00080818660808380818E7F80838C918160E3
:102500008C93089581E008958F929F92AF92BF922D
:10251000CF92DF92EF92FF920F931F93CF93DF93AF
:102520005C017B018A01C1E0D0E0CE15DF05CCF073
:1025300081E0F5018083B801C7010E94A21DF50169
:102540009283818390E080E0DF91CF911F910F9182
:10255000FF90EF90DF90CF90BF90AF909F908F90C3
:1025600008956E018FEFC81AD80AFE01EE0FFF1F03
:10257000E00FF11F808091808114910469F067E67B
:1025800072E0C4010E94A528892B41F4CC0FDD1F05
:10259000C00FD11F19821882E601C7CF6AE672E028
:1025A000C4010E94A528892BB9F7EC14FD04A1F3FE
:1025B0006E01E2E0CE0ED11CCC0FDD1FC00FD11F8B
:1025C000198218821B821A82E7CF83EB93E0089569
:1025D00080E008950F931F93CF93DF938B01BA018F
:1025E000E901198218829801012E000C440B550B49
:1025F000FC0181819281EADE019641F01983088312
:1026000080E0DF91CF911F910F91089581E0F9CF84
:102610000F931F93CF93DF9300D0CDB7DEB7FB01AD
:102620008A01B9019E012F5F3F4FAF01FC018181FB
:1026300092810E94B61D019669F089819A81F80104
:102640009183808380E00F900F90DF91CF911F9155
:102650000F91089581E0F7CFFC01808108950895DE
:10266000089581E0FB01808380E008950895109231
:10267000DB030895FC01818192810C949A1DCF9314
:10268000DF93CDB7DEB72A970FB6F894DEBF0FBE43
:10269000CDBFB0E0A0E089839A83AB83BC83CB013C
:1026A000770FAA0BBB0B8D839E83AF83B8879E01E8
:1026B000275F3F4FAE014F5F5F4F68E070E0809152
:1026C000CA039091CB0386DF811110C081E0298578
:1026D0003A852830310509F480E02A960FB6F8943F
:1026E000DEBF0FBECDBFDF91CF91089581E0F5CF62
:1026F0000F931F93CF93DF9300D0CDB7DEB78B013D
:102700009E012F5F3F4FAC018091CA039091CB0394
:1027100061DF81110EC081E029813A8120173107E4
:1027200009F480E00F900F90DF91CF911F910F91EE
:10273000089581E0F7CFCF93DF93EC011092CE03A1
:102740001092CD031092DA031092D903AC0160E02D
:1027500070E0CB0103D8AE0161E070E080E090E072
:102760000E94AE0B8091CA039091CB03DF91CF9171
:102770007DCF4F925F926F927F928F929F92AF9296
:10278000BF92CF92DF92EF92FF920F931F93CF935E
:10279000DF9300D0CDB7DEB78C017C0197FF03C07B
:1027A00087E0E80EF11C23E0F594E7942A95E1F721
:1027B000C80168E070E00E94D2266C010E5F1F4FD6
:1027C0008091C8039091C90380179107D4F4809138
:1027D000C6039091C703009731F00E940C28109215
:1027E000C9031092C803C8010E9470279093C703C1
:1027F0008093C603892B09F482C01093C903009308
:10280000C80310E000E047C1412C512C3201B12C2B
:10281000A12C950121533C4FAE014F5F5F4F61E00A
:1028200070E08091CA039091CB03F2DE811149C020
:10283000EFEF4E1A5E0A6E0A7E0AF0E94F16FFE5C8
:102840005F06F1E06F06710444F06091D903709166
:10285000DA038DEE90E013DFD7CF89819A81A80E3D
:10286000B91E8AE0A816B10409F043C049E050E05F
:1028700070E060E08FEC93E00E942D1E6091D90320
:102880007091DA03882391F18091D70390E0861745
:10289000970781F4BC018EEE90E0F1DE8091D903C0
:1028A0009091DA03019699279093DA038093D903E4
:1028B0000F5F1F4F0E151F050CF4A6CFCD2809F092
:1028C0007CC090E080E00F900F90DF91CF911F913E
:1028D0000F91FF90EF90DF90CF90BF90AF909F90BF
:1028E0008F907F906F905F904F9008958FEE90E063
:1028F000B2CFEAE0AE16B1040CF48BCFDBCF10E020
:1029000000E0D8CF0A30110531F549E050E070E021
:1029100060E08FEC93E00E942D1E6091D9037091CE
:10292000DA038823A9F08091D70390E086179707F0
:1029300041F6BC018EEE90E0A2DE8091D903909129
:10294000DA03019699279093DA038093D903B9CFDC
:102950008FEE90E02BC00A3011050CF0B2CF980139
:1029600021533C4FAE014F5F5F4F61E070E08091BB
:10297000CA039091CB034CDE8111A3CF89819A8148
:10298000080F191FFFEFCF1ADF0AEF0AFF0A80E9CD
:10299000C8168FE5D80681E0E806F1040CF4B2CF42
:1029A0006091D9037091DA038DEE90E068DE10E05B
:1029B00000E0C12CD12C7601D2CFC12CD12C7601D4
:1029C00010E000E0CCCF412C512C3201B12CA12CD5
:1029D000480193E0880C991C9A95E1F72091C60371
:1029E0003091C703C501880D991D280F391FAE010D
:1029F0004F5F5F4F61E070E08091CA039091CB031D
:102A000007DE81115ECFEFEF4E1A5E0A6E0A7E0A74
:102A10006091D9037091DA038DEE90E0F0E94F16E2
:102A2000FFE55F06F1E06F0671040CF043C0898199
:102A30009A81A80EB91E8AE0A816B10409F041C017
:102A400049E050E0B4018091C6039091C7030E9411
:102A50002D1E6091D9037091DA03882349F180918A
:102A6000C6039091C703880E991EF401808590E0FB
:102A70008617970781F4BC018EEE90E000DE80910E
:102A8000D9039091DA03019699279093DA03809302
:102A9000D9030F5F1F4F0E151F050CF494CFC114FF
:102AA000D10409F081C08091C6039091C7030BCF78
:102AB0008FEE90E0E4DD412C512C3201B12CA12CA1
:102AC0008DCFFAE0AF16B1040CF488CFE4CF8FEECF
:102AD00090E0D5DDF12CE12C812C912C5401970153
:102AE00021533C4FAE014F5F5F4F61E070E080913A
:102AF000CA039091CB038CDD8111E3CE8FEF881A4E
:102B0000980AA80AB80A6091D9037091DA038DEE89
:102B100090E0E0E98E16EFE59E06E1E0AE06B10436
:102B2000C4F689819A81E80EF91EFAE0EF16F104E5
:102B3000A9F549E050E070E060E08FEC93E00E947E
:102B40002D1E6091D9037091DA03882309F4BFCF59
:102B50008091D70390E08617970709F0A4CFBC01B6
:102B60008EEE90E08CDD83E0000F111F8A95E1F777
:102B70008091C6039091C703A6016FEC73E0800FAC
:102B8000911F0E9495288091D9039091DA030196B4
:102B900099279093DA038093D90385CF8AE0E816CA
:102BA000F1040CF49CCF7FCF812C912C5401F12C9B
:102BB000E12C95CFCF92DF92EF92FF920F931F936C
:102BC000CF93DF931F92CDB7DEB76C017B018A01F3
:102BD000452B39F0AB0170E060E0C8010E94291E6E
:102BE0008983B701C6014BDD81110DC001151105A7
:102BF00051F0B701C8017CDD811105C061E070E0D2
:102C0000CE01019675DD0F90DF91CF911F910F914D
:102C1000FF90EF90DF90CF900895CF92DF92EF92E8
:102C2000FF92CF93DF93CDB7DEB728970FB6F89416
:102C3000DEBF0FBECDBF6B01F12CE12CC982DA8261
:102C4000EB82FC822D833E834F835887AE014F5F1A
:102C50005F4F68E070E0AEDF28960FB6F894DEBFF5
:102C60000FBECDBFDF91CF91FF90EF90DF90CF905F
:102C700008958F929F92AF92BF92CF92DF92EF9280
:102C8000FF920F931F93CF93DF937C01EB01CA0157
:102C900069016FDD0097B1F42FEF3FEFA90161E00B
:102CA00070E0C701BADFC1E08C2FDF91CF911F9197
:102CB0000F91FF90EF90DF90CF90BF90AF909F90DB
:102CC0008F900895FC0181909190A190B190BF01E7
:102CD000FCE1EF16F10479F4A5019401CE010E9404
:102CE000140AC82FA5019401882369F061E070E0FF
:102CF000C70193DFD9CF95018401AB01B601CE01A5
:102D00000E941708EECF70E060E0C701DF91CF911D
:102D10001F910F91FF90EF90DF90CF90BF90AF90F9
:102D20009F908F907ACF0F931F93CF93DF93EC01F7
:102D30008B014BDC9093CB038093CA030097A9F0DF
:102D4000A801BE01E1DBEC01892B49F08091CA03A7
:102D50009091CB0384DC1092CB031092CA03CE0176
:102D6000DF91CF911F910F910895C6E7D2E0EECF8A
:102D70008091CA039091CB036FCC2F923F924F92D8
:102D80005F926F927F928F929F92AF92BF92CF92FB
:102D9000DF92EF92FF920F931F93CF93DF93CDB704
:102DA000DEB769970FB6F894DEBF0FBECDBF209196
:102DB000CE032223F1F05B8B4A8B6E877F87888B53
:102DC000998B9A01AB01BC01CE0101967C0196D989
:102DD00010E048E0242E312CE88EF98E89819A810A
:102DE000181619060CF450C2112319F08A899B8910
:102DF000A2DC69960FB6F894DEBF0FBECDBFDF919F
:102E0000CF911F910F91FF90EF90DF90CF90BF90E7
:102E1000AF909F908F907F906F905F904F903F907A
:102E20002F900895EB81FC818C859D8533E0880F80
:102E3000991F3A95E1F7E80FF91F808191819093EE
:102E4000C5038093C403248135814281538150930B
:102E5000C3034093C203468157815093C1034093FB
:102E6000C003820F931F9C01990F440B550B2C8BB1
:102E70003D8B4E8B5F8B812C912C54018C899D89CD
:102E8000AE89BF8988169906AA06BB0638F18C85DB
:102E90009D85880F991FED81FE81E80FF91F4E85F2
:102EA0005F8568897989808191810E94E00BAC857A
:102EB000BD851196BD87AC8789819A81EC85FD859A
:102EC000E817F9070CF4AECF2A893B894E855F8558
:102ED00068897989888D998D11D980CF1F826091F9
:102EE000C4037091C503CB01072E000CAA0BBB0BCA
:102EF00084017501640134E0C30ED11CE11CF11C96
:102F0000C816D906EA06FB0608F0B3C02091C20332
:102F10003091C303A4014C5F5F4F240F351FF901AB
:102F2000C080D12CF12CE12C24013501F5E04F0EAD
:102F3000511C611C711C481659066A067B0608F074
:102F4000A3C02091C2033091C303F8013596E20F6C
:102F5000F31F2081D22A2401350126E0420E511CA4
:102F6000611C711C481659066A067B0608F097C05A
:102F70002091C2033091C303F8013696E20FF31F8C
:102F80002081E22A2401350137E0430E511C611CE7
:102F9000711C481659066A067B0608F08BC0209102
:102FA000C2033091C303F8013796E20FF31F20816B
:102FB00026013701722A7501640148E0C40ED11C54
:102FC000E11CF11C8C159D05AE05BF0508F41DC163
:102FD00088169906AA06BB0608F077C08091C2033E
:102FE0009091C303800F911F68E070E081DBE09156
:102FF000C403F091C5039F010F2E000C440B550B29
:10300000D301C2018C0D9D1DAE1DBF1D28173907B0
:103010004A075B0708F478C0C216D306E406F50633
:1030200008F05DC08091C2039091C3039801285FAE
:103030003F4F820F931FB2015BDB8091C4039091DD
:10304000C503AC01092E000C660B770BC416D50620
:10305000E606F70608F04DC0085F1F4F8091C203D7
:103060009091C303800F911FA20170E060E0F1D541
:10307000A7C044E050E0461B570B480D591D209156
:10308000C0033091C10349CFE5E0F0E0E61BF70B48
:10309000E00FF11F2091C0033091C10358CFE6E04B
:1030A000F0E0E61BF70BE00FF11F2091C003309119
:1030B000C10364CFE7E0F0E0E61BF70BE00FF11F80
:1030C0002091C0033091C10370CF9801261B370BAC
:1030D0008091C0039091C103820F931F85CF91010E
:1030E0002E1B3F0B200F311F8091C0039091C10315
:1030F000A0CFD101A81BB90BCD01080F191F8091DA
:10310000C0039091C103AECFBF0168507109601B2D
:10311000710BC216D306E406F50608F062C0809172
:10312000C2039091C3039801285F3F4F820F931F02
:10313000DFDA8091C4039091C503B101681B790B5C
:10314000600F711F640D751D8091C0039091C103C4
:10315000CFDA8091C4039091C503AC014850510966
:10316000FA01E01BF10BAC01092E000C660B770B8A
:10317000C416D506E606F70608F03DC08091C203E6
:103180009091C3039801285F3F4F820F931FAF01B7
:1031900070E060E05ED58F832091C4033091C50359
:1031A000F101E21BF30B9F01200F311F240D351D90
:1031B00050E040E0682F8091C0039091C10335D565
:1031C0008F8361E070E0CE01079692DA182F38E025
:1031D000430E511C611C711C840C951CA61CB71C51
:1031E0004DCE91012E1B3F0B200F311F8091C0034C
:1031F0009091C1039BCF9101281B390B200F311FE8
:103200008091C0039091C103C0CF88169906AA0689
:10321000BB0668F5601B710B8091C2039091C303DC
:10322000800F911F65DA8091C4039091C503B101AD
:10323000681B790B600F711F640D751D8091C003B1
:103240009091C10355DA8091C4039091C503AC01FC
:10325000092E000C660B770BC416D506E606F7069A
:1032600008F4FACE9101281B390BC90146CFC801D9
:10327000861B970B2091C0033091C103B201685F98
:103280007F4F820F931FDECF1D861C8615CECF93F6
:10329000DF93EC01AC0160E070E0CB016EDDAE01CC
:1032A00061E070E080E090E0DF91CF9166CDCF9358
:1032B0008091CA039091CB038BD9C82F81110BC089
:1032C00060E070E0CB010E94D70661E070E080E032
:1032D00090E00E94D7068C2FCF9108950F931F93F3
:1032E00089019A01AB01BC018091CA039091CB0383
:1032F000B7D91F910F9108954F925F926F927F926D
:103300008F929F92AF92BF92CF92DF92EF92FF92F5
:103310000F931F93CF93DF93CDB7DEB763970FB6AD
:10332000F894DEBF0FBECDBF6C018B015A018091B6
:10333000CE03882309F43DC08091CE03882309F48D
:1033400042C08091CD031A821982882309F4BEC03D
:10335000F0E94F2EFFE55F2E66246394712CF12C6B
:10336000E12C97012A543C4FAE014F5F5F4F61E063
:1033700070E08091CA039091CB034AD9982E8111B5
:1033800069C089819A81E80EF91EE114F10409F4FB
:1033900061C081E0481A51086108710859F56091CF
:1033A000D9037091DA038DEE90E069D91A821982FF
:1033B00051C06EEC73E08091CA039091CB0351D958
:1033C000882309F4B9CF63960FB6F894DEBF0FBE19
:1033D000CDBFDF91CF911F910F91FF90EF90DF90C4
:1033E000CF90BF90AF909F908F907F906F905F90A5
:1033F0004F900895AAE0EA16F10409F061C049E08F
:1034000050E070E060E086EB93E027D46091D90350
:103410007091DA03882309F450C08091BE0390E0D4
:103420008617970719F6BC018EEE90E028D988E040
:10343000E6EBF3E0DE01199601900D928A95E1F733
:103440008091D9039091DA03019699279093DA033A
:103450008093D90381E029813A81121613060CF07A
:1034600080E09110C8C2882309F4ADCF8091CD03CC
:10347000811104C019861A861B861C8689859A8547
:10348000AB85BC8580319105A105B10508F09BCFC6
:10349000FC01E35BF54E0C942327CD1A8C1CFB1C1E
:1034A000E319D11B041CBD1AC51AA11AE01CCF1CBC
:1034B000DC1CE319E319E3198C1A8FEE90E075CF49
:1034C000BAE0EB16F1040CF44CCFC4CFF12CE12C94
:1034D000E8E06E2E712C29E030E02C0F3D1F2E0D00
:1034E0003F1DAE014F5F5F4FB3016E197F098091A1
:1034F000CA039091CB038CD8982E29813A818111EF
:1035000009C0E20EF31EE114F10421F0E8E0EE162A
:10351000F1040CF381E0A1CFD6011696ED91FC9158
:1035200080819181A281B38189839A83AB83BC839B
:10353000AE014F5F5F4F64E070E085E190E03ADB01
:1035400042CF8D859E8515D92FEF3FEFA90161E010
:1035500070E0009771F0FC01C080D180E280F380C0
:10356000A801C701B6010E94590BA701960170E09E
:1035700060E08DE190E051DB26CF4D855E859801BE
:10358000B6018BE190E075DB1ECF4D855E852FEF98
:103590003FEFB6018CE190E0F6CFD6011496ED91A5
:1035A000FC9100811181F80182809380A080B1801C
:1035B00070E1472E512C612C712C49825A826B820A
:1035C0007C8288E090E0A0E0B0E08D839E83AF83B2
:1035D000B8879E012F5E3F4FAE014F5F5F4F68E09F
:1035E00070E08091CA039091CB030E94EA12882375
:1035F000D9F010E000E0C80163960FB6F894DEBF82
:103600000FBECDBFDF91CF911F910F91FF90EF9033
:10361000DF90CF90BF90AF909F908F907F906F90F2
:103620005F904F900C940C2889899A89089709F724
:10363000D801ED90FC90B8E0EB0EF11CEE0CFF1CF5
:10364000EE0CFF1CC7010E9470278C01892B89F2A8
:1036500049825A826B827C82C7010F2C000CAA0B14
:10366000BB0B8D839E83AF83B8879E012F5E3F4F38
:10367000AE014F5F5F4F68E070E08091CA039091A8
:10368000CB030E94EA128111B6CF89899A890897E3
:1036900009F0B1CFD6011296ED91FC914081518194
:1036A00062817381D8014D935D936D937C931397E1
:1036B000448155816681778114964D935D936D9316
:1036C0007C931797408551856285738518964D9335
:1036D0005D936D937C931B9784859585A685B785AF
:1036E000F80184879587A687B787108A118A128A7E
:1036F000138A84E090E0A0E0B0E0848B958BA68BE9
:10370000B78B8091C1019091C201B0E0A0E0808FA1
:10371000918FA28FB38FC5010B2C000CAA0BBB0B92
:10372000848F958FA68FB78FF401D801909690E083
:1037300080E08A159B055CF19E012F5E3F4FA8013A
:10374000B7018091CA039091CB030E94EA128111C4
:1037500052CF89899A89E816F90609F04CCFA7015A
:1037600070E060E0C80175D28B8B9E012F5E3F4FE9
:10377000AE014D5E5F4F61E070E08091CA039091B1
:10378000CB030E94EA1281E08093CD0334CF4191B4
:10379000519170E060E04D935D936D937D93019640
:1037A000C8CF8D859E85AF85B8890097A105B105E5
:1037B00021F481E08093CC0306CE0E94B9130097D8
:1037C00081F481E090E0A0E0B0E089839A83AB834C
:1037D000BC83AE014F5F5F4F64E070E082E190E038
:1037E000AECEBC01C6010E94300619821A821B822D
:1037F0001C82AE014F5F5F4F64E070E082E190E0B9
:10380000D9D98823B1F2DFCDD6011496ED91FC9180
:103810000190F081E02DE084F1848FEF8983E11441
:10382000F10409F472C0D7016D907C90C280D380FE
:1038300070E060E090E080E08615970594F083E109
:1038400090E00E943F1310E000E08111BCCD06150E
:1038500017055CF161E070E0CE0101960E947813DB
:10386000B2CD9C0143E0220F331F4A95E1F7F701E7
:10387000A281B381A20FB31F1296ED91FC91139711
:10388000EE0FFF1FEC0DFD1D0190F081E02D16964F
:103890004D915C91E49F9001E59F300DF49F300DB8
:1038A0001124620F731F0196C7CFD7011296ED91B5
:1038B000FC91C80123E0880F991F2A95E1F7E80FD2
:1038C000F91FA080B180A281B381AA0FBB1FAC0DEC
:1038D000BD1D2D913C9186819781289F4001299F94
:1038E000900C389F900C1124B401C5010E947813EC
:1038F000582E940150E040E06981C50196D189833A
:10390000511061CD0F5F1F4FA2CF70E060E083E1E7
:1039100090E00E943F1357CD50E040E070E060E03F
:1039200081E190E047D981114ECD60E070E0CB019C
:103930000E94FE078091AF03882329F0A80160E070
:1039400070E0CB011ADAA80160E070E0CB010E94C0
:10395000030761E070E080E090E00E94FE07809144
:10396000AF03882331F0A80161E070E080E090E0CF
:1039700004DAA80161E070E080E090E00E940307B3
:103980001092CE031092CD031092DA031092D90355
:103990008091CA039091CB030E94371314CD81E02C
:1039A00090E09093B1038093B00350E040E070E06A
:1039B00060E086E190E0C3CD81E0F501808303CD36
:1039C0008D859E850E94B9132FEF3FEFA90161E01D
:1039D00070E0009769F0DC01CD90DD90ED90FC90F7
:1039E000C701B6010E94B90BA701960170E060E023
:1039F0008EE190E0C0CDC8010E949B13E4CCCF9231
:103A0000DF92EF92FF92CF93DF93EC01C12CD12C88
:103A10007601C701B6010E94FE07AE01C701B601DB
:103A2000ACD9AE01C701B6010E9403078091C6035D
:103A30009091C703009731F00E940C281092C703A1
:103A40001092C603CA94CD28CE28CF2879F580914C
:103A5000CD03F12C882351F050E040E070E060E0AD
:103A600084E190E0A7D8F82E1092CD038091CE0388
:103A7000882341F01092CE0381E090E09093C20140
:103A80008093C1018091CA039091CB030E943A13A5
:103A90008091CA039091CB030E942F138F2DDF9149
:103AA000CF91FF90EF90DF90CF900895C12CD12C53
:103AB0007601C394AECFCF93DF93EC01AC0160E00D
:103AC00070E0CB010E94EE0FAE0161E070E080E09B
:103AD00090E0DF91CF910C94EE0F60E070E0CB01AD
:103AE0000E945B1061E070E080E090E00C945B105D
:103AF000CF92DF92EF92FF920F931F93CF93DF93BA
:103B0000EC016A017B0100E010E098010E94090CC1
:103B100001E010E020E030E0B701A601CE010E94F4
:103B2000090CDF91CF911F910F91FF90EF90DF90E3
:103B3000CF90089568EE73E080E090E0AAD590E021
:103B400080E0089526E040E050E16EE070E08EE015
:103B500094E0BCD78EE094E0EFD6892B21F08EE084
:103B600094E004D7F7CF90E080E00895CF92DF9201
:103B7000EF92FF920F931F93CF93DF936B017A0124
:103B8000E901198218828EE094E0D6D6892B71F172
:103B90008601CC24C39485E6D82E8091DB03811165
:103BA00011C08EE094E0E2D685369105B1F7C0925F
:103BB000DB03F801D1928F01888199810196998365
:103BC0008883EBCF888199818E159F0578F48EE0EC
:103BD00094E0CCD68F3F9807A9F3F80181938F0129
:103BE00088819981019699838883ECCF90E080E069
:103BF000DF91CF911F910F91FF90EF90DF90CF90C9
:103C000008950F931F93CF93DF93EA0189018EE00C
:103C100094E00E944A26F801D183C08390E080E0BE
:103C2000DF91CF911F910F910895DC01A40FB51F73
:103C3000420F531F9D01281B390B2417350710F025
:103C4000862F0895ED91E627F0E0E859FF4F649143
:103C5000F1CF9A01AB016FEFE8CFCF93FC01E60FF4
:103C6000F71FE40FF51FC081F4DF91E0C81390E067
:103C7000892FCF9108958091DC0391E0980F909364
:103C8000DC03882349F021E030E03093DE03209309
:103C9000DD038093DC03089578940E943C02F8943D
:103CA0008091DC0381508093DC030C94D811FF9247
:103CB0000F931F93CF93DF931F92CDB7DEB7109270
:103CC000DE041092DD041BD50E942A120091D80157
:103CD0001091D901F8011182108270E060E090E04B
:103CE00080E00E94E0110E942104F8947894C801B9
:103CF00086960E94DF1181E090E00E94DC1119821B
:103D0000AE014F5F5F4F61E070E0F8018281938107
:103D10000E948C118981882319F081E0F80182A723
:103D20000E94E511F8940E946612F8018081918149
:103D3000892B19F481E092A5911180E08093DD0434
:103D400078947894FF24F3948091DD04811110C05D
:103D50000E94FF0481E090E00E94DD11F89490E061
:103D600080E00F90DF91CF911F910F91FF90089508
:103D70001982AE014F5F5F4F61E070E0F801828110
:103D800093810E94C4118981882311F0F801F2A661
:103D9000F80180819181892B89F481E092A59111AC
:103DA00001C080E08093DE049091DE0481E09111F7
:103DB00080E08093DD040E948212C6CF81E0F2CFC2
:103DC0005058BB27AA270ED057C148D130F04DD14B
:103DD00020F031F49F3F11F41EF43DC10EF4E09544
:103DE000E7FB0AC1E92F59D180F3BA1762077307BD
:103DF0008407950718F071F49EF588C10EF4E095DC
:103E00000B2EBA2FA02D0B01B90190010C01CA0194
:103E1000A0011124FF27591B99F0593F50F4503E3F
:103E200068F11A16F040A22F232F342F4427585F31
:103E3000F3CF469537952795A795F0405395C9F749
:103E40007EF41F16BA0B620B730B840BBAF0915001
:103E5000A1F0FF0FBB1F661F771F881FC2F70EC0A0
:103E6000BA0F621F731F841F48F487957795679573
:103E7000B795F7959E3F08F0B3CF9395880F08F05C
:103E80009927EE0F97958795089529D180F09F3750
:103E900040F491110EF43BC160E070E080E89FE3D4
:103EA000089526F01B16611D711D811DABC0C5C094
:103EB0007FD008F481E00895F8D088F09F5790F003
:103EC000B92F9927B751A0F0D1F0660F771F881F3F
:103ED000991F1AF0BA95C9F712C0B13081F016D106
:103EE000B1E0089513C1672F782F8827B85F39F0A4
:103EF000B93FCCF3869577956795B395D9F73EF49E
:103F000090958095709561957F4F8F4F9F4F089545
:103F1000E89409C097FB3EF4909580957095619563
:103F20007F4F8F4F9F4F9923A9F0F92F96E9BB2719
:103F30009395F695879577956795B795F111F8CF95
:103F4000FAF4BB0F11F460FF1BC06F5F7F4F8F4F00
:103F50009F4F16C0882311F096E911C0772321F0F6
:103F60009EE8872F762F05C0662371F096E8862F8E
:103F700070E060E02AF09A95660F771F881FDAF7E5
:103F8000880F9695879597F90895A9D080F09F3767
:103F900040F491110EF0BBC060E070E080E89FEB50
:103FA000089526F41B16611D711D811D2BC045C08F
:103FB000990F0008550FAA0BE0E8FEEF161617063A
:103FC000E807F907C0F012161306E407F50798F0A2
:103FD000621B730B840B950B39F40A2661F0232BBB
:103FE000242B252B21F408950A2609F4A140A69537
:103FF0008FEF811D811D089597F99F6780E870E01C
:1040000060E00895882371F4772321F09850872B7E
:10401000762F07C0662311F499270DC09051862B87
:1040200070E060E02AF09A95660F771F881FDAF734
:10403000880F9695879597F908959F3F31F0915095
:1040400020F4879577956795B795880F911D96957C
:10405000879597F908959FEF80EC089500240A94BE
:104060001616170618060906089500240A94121653
:104070001306140605060895092E0394000C11F486
:10408000882352F0BB0F40F4BF2B11F460FF04C033
:104090006F5F7F4F8F4F9F4F089557FD9058440F8C
:1040A000551F59F05F3F71F04795880F97FB991F97
:1040B00061F09F3F79F08795089512161306140654
:1040C000551FF2CF4695F1DF08C0161617061806E1
:1040D000991FF1CF86957105610508940895E5DF74
:1040E000A0F0BEE7B91788F4BB279F3860F4161616
:1040F000B11D672F782F8827985FF7CF8695779522
:104100006795B11D93959639C8F30895E894BB2738
:1041100066277727CB0197F908954ADF08F48FEFD8
:1041200008950BD0A9CF9ADF28F09FDF18F09523D0
:1041300009F062CF90CF1124EACFAFDFA0F3959FB3
:10414000D1F3950F50E0551F629FF001729FBB277E
:10415000F00DB11D639FAA27F00DB11DAA1F649F2A
:104160006627B00DA11D661F829F2227B00DA11DDD
:10417000621F739FB00DA11D621F839FA00D611D63
:10418000221F749F3327A00D611D231F849F600D84
:10419000211D822F762F6A2F11249F5750408AF0BD
:1041A000E1F088234AF0EE0FFF1FBB1F661F771F49
:1041B000881F91505040A9F79E3F510570F01CCFC9
:1041C000A6CF5F3FECF3983EDCF386957795679535
:1041D000B795F795E7959F5FC1F7FE2B880F911D67
:1041E0009695879597F908951F920F920FB60F92A3
:1041F00011242F933F934F935F936F937F938F93EC
:104200009F93AF93BF93EF93FF938091E00387FF5A
:1042100027C010928500109284008091E0038F5F88
:104220008093E0038091E003082E000C990B20910D
:10423000DF032817190629F024F08091E0038C3061
:10424000D4F18091840090918500049680349C493B
:1042500008F479C08091840090918500049675C01F
:104260008091E003082E000C990B2091DF032817A2
:10427000190699F294F2E091E0038E2FEE0F990B5C
:10428000FC01EE0FFF1FE80FF91FEF51FC4F80817B
:1042900086FFC3CFE091E0038E2FEE0F990BFC0158
:1042A000EE0FFF1FE80FF91FEF51FC4F808160E018
:1042B0008F73C5D2B2CF2091840030918500E091F8
:1042C000E0038E2FEE0F990BFC01EE0FFF1FE80F9E
:1042D000F91FEF51FC4F81819281820F931F9093C0
:1042E000890080938800E091E0038E2FEE0F990BF8
:1042F000FC01EE0FFF1FE80FF91FEF51FC4F80810B
:1043000086FF10C0E091E0038E2FEE0F990BFC01A9
:10431000EE0FFF1FE80FF91FEF51FC4F808161E0A6
:104320008F738DD2FF91EF91BF91AF919F918F913C
:104330007F916F915F914F913F912F910F900FBEA1
:104340000F901F90189580E49CE9909389008093CA
:1043500088008FEF8093E003E5CFFC019091DF03AD
:104360009C3098F481E0890F8093DF039083892F3C
:1043700090E0FC01EE0FFF1FE80FF91FEF51FC4F1B
:1043800088EB9BE09283818308958FEF808308956B
:10439000DF92EF92FF920F931F93CF93DF93EC0185
:1043A000D62E7A01890188818C3008F065C061E0E1
:1043B0008D2D09D28881282F30E0F901EE0FFF1FE3
:1043C000E20FF31FEF51FC4F9D2D9F736081607CC6
:1043D000692B608320E232E02E193F0937FF02C0CB
:1043E0002D5F3F4F3595279535952795298320E6F5
:1043F00039E0201B310B37FF02C02D5F3F4F359551
:104400002795359527952A832CE0622FBFD4829F6C
:10441000B001112430E020E0AB01420F531FFA013C
:10442000EE0FFF1FE40FF51FEF51FC4F908196FD3B
:1044300016C02F5F3F4F2C30310571F781110FC02F
:104440001092800082E0809381001092850010928B
:104450008400B19A80916F00826080936F00E88140
:104460008E2F90E0FC01EE0FFF1FE80FF91FEF51B8
:10447000FC4F8081806480838881DF91CF911F9180
:104480000F91FF90EF90DF90089520E639E040E231
:1044900052E07ECFDC01EC91EC3090F511968C91DE
:1044A000119728E830E0281B310987FD3395220F4A
:1044B000331F220F331F6217730784F012968C91FB
:1044C00028E532E0281B310987FD3395220F331F81
:1044D000220F331F621773070CF49B01225031091E
:1044E000220F331F4FB7F8948E2F90E0FC01EE0F90
:1044F000FF1FE80FF91FEF51FC4F328321834FBF9D
:104500000895AF92BF92CF92DF92EF92FF920F93F6
:104510001F93CF93DF93EC01603282E078070CF0B9
:104520003DC0653B710514F064EB70E0898148E89B
:10453000A42EB12CA81AB10887FDB394AA0CBB1CF9
:10454000AA0CBB1C0B2C000CCC08DD0877FF02C0AA
:1045500070E060E0072E000C880B990B2A8108E5BB
:1045600012E0021B110927FD1395000F111F000F08
:10457000111F012E000C220B330B3F932F931F931F
:104580000F9314EBE12EF12C00E010E020E030E07E
:10459000A901ADD30F900F900F900F90CE01DF9136
:1045A000CF911F910F91FF90EF90DF90CF90BF9030
:1045B000AF9070CF1F920F920FB60F9211242F93CE
:1045C0003F938F939F93AF93BF93809106049091F5
:1045D0000704A0910804B09109043091050423E078
:1045E000230F2D3758F50196A11DB11D2093050409
:1045F0008093060490930704A0930804B0930904E1
:1046000080910A0490910B04A0910C04B0910D04C8
:104610000196A11DB11D80930A0490930B04A093F1
:104620000C04B0930D04BF91AF919F918F913F9176
:104630002F910F900FBE0F901F90189526E8230F13
:104640000296A11DB11DD2CF3FB7F89480910A0404
:1046500090910B04A0910C04B0910D0426B5A89B79
:1046600005C02F3F19F00196A11DB11D3FBFBA2F04
:10467000A92F982F8827BC01CD01620F711D811DC4
:10468000911D42E0660F771F881F991F4A95D1F749
:1046900008958F929F92AF92BF92CF92DF92EF9246
:1046A000FF926B017C01D0DF4B015C01C114D1048E
:1046B000E104F104D9F05AD3C7DF681979098A09EE
:1046C0009B09683E73408105910580F321E0C21A81
:1046D000D108E108F10888EE880E83E0981EA11C3D
:1046E000B11CC114D104E104F10431F7FF90EF9043
:1046F000DF90CF90BF90AF909F908F900895789467
:1047000084B5826084BD84B5816084BD85B58260D6
:1047100085BD85B5816085BDEEE6F0E08081816074
:104720008083E1E8F0E01082808182608083808174
:1047300081608083E0E8F0E0808181608083E1EB4C
:10474000F0E0808184608083E0EBF0E08081816034
:104750008083EAE7F0E080818460808380818260EA
:1047600080838081816080838081806880831092D3
:10477000C1000895833081F028F4813099F08230AF
:10478000A9F008958730A9F08830C9F08430B1F4D9
:10479000809180008F7D03C0809180008F7780930F
:1047A0008000089584B58F7784BD089584B58F7D8A
:1047B000FBCF8091B0008F778093B00008958091F7
:1047C000B0008F7DF9CFCF93DF9390E0FC01E458E8
:1047D000FE4F249180579E4FFC0184918823C9F09D
:1047E00090E0880F991FFC01E854FE4FA591B49109
:1047F000FC01E255FE4FC591D49161110DC09FB7E8
:10480000F8948C91209582238C9388812823288387
:104810009FBFDF91CF910895623051F49FB7F89414
:104820003C91822F809583238C93E8812E2BEFCFB0
:104830008FB7F894EC912E2B2C938FBFEACF1F9358
:10484000CF93DF93282F30E0F901E859FE4F849190
:10485000F901E458FE4FD491F901E057FE4FC4919D
:10486000CC23A1F0162F811185DFEC2FF0E0EE0FA5
:10487000FF1FE255FE4FA591B4918FB7F894EC91CC
:10488000111108C0D095DE23DC938FBFDF91CF914B
:104890001F910895DE2BF8CFCF93DF93282F30E0C0
:1048A000F901E859FE4F8491F901E458FE4FD49183
:1048B000F901E057FE4FC491CC2399F081115ADFE2
:1048C000EC2FF0E0EE0FFF1FEC55FE4FA591B491D9
:1048D000EC91ED2381E090E009F480E0DF91CF914D
:1048E000089580E090E0FACF0F931F9390E0FC01D1
:1048F000E458FE4F7491FC01E057FE4FE4916111C2
:10490000672FF0E0EE0FFF1FEC55FE4F859194915D
:1049100089019A013F70462F672F0E940C01611593
:1049200071058105910529F06F5F7F4F8F4F9F4F74
:104930009F701F910F910895FC01918D228D892FF9
:1049400090E0805C9F4F821B91098F739927089597
:10495000FC01918D828D981731F0828DE80FF11D49
:10496000858D90E008958FEF9FEF0895FC01918D64
:10497000828D981761F0A28DAE0FBF2FB11D5D968D
:104980008C91928D9F5F9F73928F90E008958FEF2F
:104990009FEF0895FC01538D448D252F30E0842F27
:1049A00090E0821B930B541710F0CF960895019757
:1049B0000895FC01A48DA80FB92FB11DA35ABF4FB4
:1049C0002C91848D90E001968F739927848FA6890E
:1049D000B7892C93A089B1898C91837080648C9362
:1049E000938D848D981306C00288F389E02D808111
:1049F0008F7D80830895CF93DF93EC01888D88238A
:104A0000B1F0AA89BB89E889F9898C9185FD03C039
:104A1000808186FD0CC00FB607FCF7CF8C9185FF17
:104A2000F2CF808185FFEDCFCE01C3DFEACFDF91EA
:104A3000CF910895EF92FF920F931F93CF93DF933F
:104A4000EC0181E0888F9B8D8C8D98131AC0E889CA
:104A5000F989808185FF15C09FB7F894EE89FF8999
:104A60006083E889F98980818370806480839FBF37
:104A700081E090E0DF91CF911F910F91FF90EF9037
:104A80000895F62E0B8D10E00F5F1F4F0F73112747
:104A9000E02E8C8D8E110BC00FB607FCFACFE88983
:104AA000F989808185FFF5CFCE0183DFF2CFEB8DD1
:104AB000EC0FFD2FF11DE35AFF4FF0829FB7F894E2
:104AC0000B8FEA89FB8980818062D0CFCF92DF9201
:104AD000EF92FF921F93CF93DF93EC016A017B016A
:104AE000122FE889F98982E08083C11481EED8060B
:104AF000E104F10499F060E079E08DE390E0A70132
:104B0000960163D1215031094109510956954795C4
:104B100037952795211580E1380790F0E889F989C4
:104B2000108260E874E88EE190E0A70196014DD113
:104B300021503109410951095695479537952795D7
:104B4000EC85FD853083EE85FF852083188EEC890A
:104B5000FD891083EA89FB89808180618083EA89ED
:104B6000FB89808188608083EA89FB8980818068F5
:104B70008083EA89FB8980818F7D8083DF91CF915B
:104B80001F91FF90EF90DF90CF9008951F920F92AA
:104B90000FB60F9211242F938F939F93EF93FF9350
:104BA000E0911E04F0911F048081E0912404F091B3
:104BB000250482FD1BC09081809127048F5F8F7335
:104BC00020912804821741F0E0912704F0E0E25F91
:104BD000FB4F958F80932704FF91EF919F918F91C9
:104BE0002F910F900FBE0F901F9018958081F4CFDA
:104BF0001F920F920FB60F9211242F933F934F9352
:104C00005F936F937F938F939F93AF93BF93EF9334
:104C1000FF938EE094E0CDDEFF91EF91BF91AF91D5
:104C20009F918F917F916F915F914F913F912F91C4
:104C30000F900FBE0F901F901895EEE0F4E01382D6
:104C4000128288EE93E0A0E0B0E084839583A6838F
:104C5000B78385EB92E09183808385EC90E0958724
:104C6000848784EC90E09787868780EC90E0918B36
:104C7000808B81EC90E0938B828B82EC90E0958B23
:104C8000848B86EC90E0978B868B118E128E138E20
:104C9000148E0895AF92BF92CF92DF92EF92FF925F
:104CA0000F931F93CF93DF936C017B018B01040F54
:104CB000151FEB015E01AE18BF08C017D10759F0F0
:104CC0006991D601ED91FC910190F081E02DC60132
:104CD0000995892B79F7C501DF91CF911F910F912C
:104CE000FF90EF90DF90CF90BF90AF9008954F92DC
:104CF0005F926F927F92AF92BF92CF92DF92EF92CC
:104D0000FF920F931F93CF93DF93CDB7DEB72901A7
:104D10003A019B01AC0124193509460957098989D3
:104D20009A89AB89BC89BC01CD016A197B098C09C0
:104D30009D091DD0A8019701241935094609570975
:104D400066D0CA01B9016A0D7B1D8C1D9D1DDF91C6
:104D5000CF911F910F91FF90EF90DF90CF90BF9078
:104D6000AF907F906F905F904F9008950895DB0112
:104D70008F939F936ED0BF91AF91A29F800D911D95
:104D8000A39F900DB29F900D11240895991B79E077
:104D900004C0991F961708F0961B881F7A95C9F7CB
:104DA0008095089597FB072E16F4009406D077FDA2
:104DB00008D059D007FC05D03EF4909581959F4FBF
:104DC0000895709561957F4F0895A1E21A2EAA1B50
:104DD000BB1BFD010DC0AA1FBB1FEE1FFF1FA217AB
:104DE000B307E407F50720F0A21BB30BE40BF50BA8
:104DF000661F771F881F991F1A9469F76095709531
:104E0000809590959B01AC01BD01CF010895052EC1
:104E100097FB16F400940FD057FD05D0D6DF07FCA2
:104E200002D046F408C050954095309521953F4FEB
:104E30004F4F5F4F089590958095709561957F4F86
:104E40008F4F9F4F0895EE0FFF1F0590F491E02DB7
:104E500009941DD0A59F900DB49F900DA49F800D27
:104E6000911D11240895AA1BBB1B51E107C0AA1F65
:104E7000BB1FA617B70710F0A61BB70B881F991FFB
:104E80005A95A9F780959095BC01CD010895A29FF0
:104E9000B001B39FC001A39F700D811D1124911D0E
:104EA000B29F700D811D1124911D08950F931F93C2
:104EB000CF93DF93869F8001879F100D969F100DE3
:104EC0001124C8010DD0EC01009721F0A80170E079
:104ED00060E034D1CE01DF91CF911F910F91089501
:104EE0000F931F93CF93DF938230910510F482E0EC
:104EF00090E0E091E104F091E20430E020E0B0E0E5
:104F0000A0E0309799F42115310509F44AC0281B17
:104F1000390B24303105D8F58A819B8161157105E3
:104F200089F1FB0193838283FE0111C0408151818D
:104F30000281138148175907E0F04817590799F47F
:104F4000109761F012960C93129713961C93329659
:104F5000CF01DF91CF911F910F9108950093E1044C
:104F60001093E204F4CF2115310551F04217530795
:104F700038F0A901DB019A01BD01DF01F801C1CFC1
:104F8000EF01F9CF9093E2048093E104CDCFFE01CD
:104F9000E20FF31F819391932250310939832883C3
:104FA000D7CF2091DF043091E004232B41F42091EE
:104FB0000201309103013093E0042093DF0420913B
:104FC0000001309101012115310541F42DB73EB7A3
:104FD0004091040150910501241B350BE091DF0441
:104FE000F091E004E217F307A0F42E1B3F0B281703
:104FF000390778F0AC014E5F5F4F2417350748F052
:105000004E0F5F1F5093E0044093DF048193919310
:105010009FCFF0E0E0E09CCFCF93DF930097E9F0E3
:10502000FC01329713821282A091E104B091E20454
:10503000ED0130E020E01097A1F420813181820F52
:10504000931F2091DF043091E0042817390709F0FD
:1050500061C0F093E004E093DF04DF91CF91089505
:10506000EA01CE17DF07E8F54A815B819E01411511
:105070005105B1F7E901FB83EA8349915991C40FC6
:10508000D51FEC17FD0761F4808191810296840F92
:10509000951FE90199838883828193819B838A8309
:1050A000F0E0E0E012968D919C9113970097B9F58E
:1050B0002D913C911197CD010296820F931F209163
:1050C000DF043091E0042817390739F6309751F59D
:1050D0001092E2041092E104B093E004A093DF0484
:1050E000BCCFD383C28340815181840F951FC817E1
:1050F000D90761F44E5F5F4F88819981480F591F2E
:10510000518340838A819B8193838283211531055A
:1051100009F0B0CFF093E204E093E1049ECFFD01EB
:10512000DC01C0CF13821282D7CFFB01DC0102C0A9
:1051300001900D9241505040D8F70895DC0101C014
:105140006D9341505040E0F70895FB01DC018D91D3
:10515000019080190110D9F3990B0895F894FFCFAD
:105160000000E304800003000A01A2010000000027
:105170000100A601080000000100A70100000000D6
:10518000060007002601D004000000000300DC0434
:10519000080000000100AB040E0000000100B7048D
:1051A000100000000100BC040B0000000400C40457
:1051B0000F0000000200CC04080000000400DA0127
:1051C000E101EB01EA01F301F201FC01FB01040240
:1051D0000E0219021F0229023202460251025C022B
:1051E00004000400010001000200020004000400A9
:1051F0000100040002000200040008000C0004008A
:1052000005000000A04001CDCCCC3D0000B4420020
:105210000000000000B442000000000000C842018D
:1052200001010053696D756C6174696F6E20666968
:105230006E69736865640001FC027265616C5F549D
:10524000007265616C33325F540075696E74385F4B
:10525000540075696E7431365F540075696E74332D
:10526000325F5400626F6F6C65616E5F54006663FD
:105270006E5F63616C6C5F5400696E745F540070A4
:105280006F696E7465725F5400616374696F6E5FFD
:10529000540074696D65725F75696E7433325F7046
:1052A0006169725F5400687462637477686C336D0F
:1052B00000666F67677062616B747400663576773D
:1052C000357333647432002D77002D69676E6F7209
:1052D000652D61726700436F756C64206E6F74207A
:1052E0006372656174652065787465726E616C20A7
:1052F0006D6F6465207573657220646174612E2022
:10530000204F7574206F66206D656D6F72792E0A5F
:1053100000000000001A254A26CA24FB249C24B65B
:0453200024A8240099
:00000001FF
