:020000040000FA
:100000000C9462000C948A000C948A000C948A0070
:100010000C948A000C948A000C948A000C948A0038
:100020000C948A000C948A000C948A000C9413039C
:100030000C948A000C948A000C948A000C948A0018
:100040000C9471020C948A000C94E1020C94BB0293
:100050000C948A000C948A000C948A000C948A00F8
:100060000C948A000C948A000000000024002700F1
:100070002A000000000023002600290000000000E4
:10008000250028002B0004040404040404040202D4
:100090000202020203030303030301020408102007
:1000A0004080010204081020010204081020000012
:1000B0000008000201000003040700000000000027
:1000C0000000CF0311241FBECFEFD8E0DEBFCDBFAD
:1000D00011E0A0E0B1E0E8ECF1E102C005900D9282
:1000E000A43BB107D9F728E0A4EBB1E001C01D9211
:1000F000AA3BB207E1F710E0C2E6D0E004C02197C6
:10010000FE010E94DC08C136D107C9F70E94350400
:100110000C94E2080C940000833081F028F48130C4
:1001200099F08230A9F008958730A9F08830C9F09D
:100130008430B1F4809180008F7D03C08091800075
:100140008F7780938000089584B58F7784BD08955C
:1001500084B58F7DFBCF8091B0008F778093B00006
:1001600008958091B0008F7DF9CF1F93CF93DF93D7
:10017000282F30E0F901E255FF4F8491F901E6564E
:10018000FF4FD491F901EA57FF4FC491CC23A9F056
:10019000162F81110E948C00EC2FF0E0EE0FFF1F54
:1001A000E458FF4FA591B4918FB7F894EC911111D9
:1001B00008C0D095DE23DC938FBFDF91CF911F91D4
:1001C0000895DE2BF8CFAF92BF92CF92DF92EF92DD
:1001D000FF920F931F93CF93DF936C017B018B01F1
:1001E000040F151FEB015E01AE18BF08C017D10741
:1001F00059F06991D601ED91FC910190F081E02DCB
:10020000C6010995892B79F7C501DF91CF911F911F
:100210000F91FF90EF90DF90CF90BF90AF90089537
:10022000FC01538D448D252F30E0842F90E0821BFC
:10023000930B541710F0CF96089501970895FC0181
:10024000918D828D981761F0A28DAE0FBF2FB11DD9
:100250005D968C91928D9F5F9F73928F90E0089531
:100260008FEF9FEF0895FC01918D828D981731F0EB
:10027000828DE80FF11D858D90E008958FEF9FEF3F
:100280000895FC01918D228D892F90E0805C9F4F15
:10029000821B91098F73992708958CEC91E00E943D
:1002A000410121E0892B09F420E0822F089580E0AC
:1002B00090E0892B29F00E944D0181110C940000DF
:1002C0000895FC01A48DA80FB92FB11DA35ABF4FEB
:1002D0002C91848D90E001968F739927848FA68945
:1002E000B7892C93A089B1898C91837080648C9399
:1002F000938D848D981306C00288F389E02D808148
:100300008F7D80830895EF92FF920F931F93CF9379
:10031000DF93EC0181E0888F9B8D8C8D98131AC040
:10032000E889F989808185FF15C09FB7F894EE8927
:10033000FF896083E889F989808183708064808384
:100340009FBF81E090E0DF91CF911F910F91FF90CF
:10035000EF900895F62E0B8D10E00F5F1F4F0F7377
:100360001127E02E8C8D8E110CC00FB607FCFACF32
:10037000E889F989808185FFF5CFCE010E9461016E
:10038000F1CFEB8DEC0FFD2FF11DE35AFF4FF08203
:100390009FB7F8940B8FEA89FB8980818062CFCF69
:1003A000CF93DF93EC01888D8823B9F0AA89BB89AC
:1003B000E889F9898C9185FD03C0808186FD0DC097
:1003C0000FB607FCF7CF8C9185FFF2CF808185FFB8
:1003D000EDCFCE010E946101E9CFDF91CF91089569
:1003E000FC0101900020E9F73197AF01481B590B40
:1003F000BC018CEC91E00C94E3008F929F92AF9241
:10040000BF920F931F93CF93DF93CDB7DEB7A19722
:100410000FB6F894DEBF0FBECDBF19A2423008F46C
:100420004AE08E010F5D1F4F842E912CB12CA12C20
:10043000A50194010E947708E62FB901CA01EA30AC
:10044000F4F4E05DD801EE938D01232B242B252BB2
:1004500079F790E080E0109719F0CD010E94F0014B
:10046000A1960FB6F894DEBF0FBECDBFDF91CF913E
:100470001F910F91BF90AF909F908F900895E95C6E
:10048000E1CFCF92DF92EF92FF92CF93DF936C0197
:10049000990FEE08FF08F7FE19C06DE28CEC91E0B1
:1004A0000E948301EC0166277727CB016C197D0937
:1004B0008E099F094AE00E94FD018C0F9D1FDF916C
:1004C000CF91FF90EF90DF90CF9008954AE0C70161
:1004D000B601DF91CF91FF90EF90DF90CF900C9419
:1004E000FD011F920F920FB60F9211242F933F938D
:1004F0008F939F93AF93BF938091C8019091C9014F
:10050000A091CA01B091CB013091C70123E0230F24
:100510002D3758F50196A11DB11D2093C701809379
:10052000C8019093C901A093CA01B093CB018091F7
:10053000C3019091C401A091C501B091C60101967B
:10054000A11DB11D8093C3019093C401A093C50167
:10055000B093C601BF91AF919F918F913F912F9121
:100560000F900FBE0F901F90189526E8230F02964C
:10057000A11DB11DD2CF1F920F920FB60F92112461
:100580002F933F934F935F936F937F938F939F939B
:10059000AF93BF93EF93FF938CEC91E00E946101C6
:1005A000FF91EF91BF91AF919F918F917F916F914B
:1005B0005F914F913F912F910F900FBE0F901F9021
:1005C00018951F920F920FB60F9211242F938F93AD
:1005D0009F93EF93FF93E091DC01F091DD01808127
:1005E000E091E201F091E30182FD1BC090818091D6
:1005F000E5018F5F8F732091E601821741F0E09152
:10060000E501F0E0E453FE4F958F8093E501FF9103
:10061000EF919F918F912F910F900FBE0F901F9090
:1006200018958081F4CF1F920F920FB60F9211246C
:100630002F933F934F935F936F937F938F939F93EA
:10064000AF93BF93CF93DF93EF93FF938091B40168
:10065000C0918D02D0E087FF24C0109285001092D7
:1006600084008091B4018F5F8093B4018091B401C4
:10067000082E000C990B8C179D0724F48091B4016F
:100680008C30C4F180918400909185000496803470
:100690009C4908F47AC0809184009091850004966A
:1006A00076C08091B401082E000C990B8C179D0721
:1006B000C4F6E091B4018E2FEE0F990BFC01EE0F02
:1006C000FF1FE80FF91FE759FD4F808186FFC9CF53
:1006D000E091B4018E2FEE0F990BFC01EE0FFF1F7E
:1006E000E80FF91FE759FD4F808160E08F730E948A
:1006F000B500B7CF2091840030918500E091B4011E
:100700008E2FEE0F990BFC01EE0FFF1FE80FF91F64
:10071000E759FD4F81819281820F931F9093890049
:1007200080938800E091B4018E2FEE0F990BFC01AD
:10073000EE0FFF1FE80FF91FE759FD4F808186FF7D
:1007400011C0E091B4018E2FEE0F990BFC01EE0F5A
:10075000FF1FE80FF91FE759FD4F808161E08F739C
:100760000E94B500FF91EF91DF91CF91BF91AF91C2
:100770009F918F917F916F915F914F913F912F91B9
:100780000F900FBE0F901F90189580E49CE99093F6
:100790008900809388008FEF8093B401E3CF10929B
:1007A000CF011092CE0188EE93E0A0E0B0E08093FC
:1007B000D0019093D101A093D201B093D30180E4F2
:1007C00091E09093CD018093CC0185EC90E09093E3
:1007D000D9018093D80184EC90E09093DB01809361
:1007E000DA0180EC90E09093DD018093DC0181ECF4
:1007F00090E09093DF018093DE0182EC90E0909393
:10080000E1018093E00186EC90E09093E301809316
:10081000E2011092E5011092E6011092E7011092B8
:10082000E801EEE8F2E02AEB38E04FEF68EB7BE01E
:1008300080918D028C30B8F491E0980F90938D02E6
:10084000808390E0DC01AA0FBB1FA80FB91FA75936
:10085000BD4F12967C936E931197E15BFF4F2E175D
:100860003F0731F708954083F8CFCF93DF93CDB79B
:10087000DEB7C854D1090FB6F894DEBF0FBECDBFA6
:10088000789484B5826084BD84B5816084BD85B56B
:10089000826085BD85B5816085BD80916E00816077
:1008A00080936E001092810080918100826080931D
:1008B000810080918100816080938100809180001F
:1008C0008160809380008091B10084608093B1004A
:1008D0008091B00081608093B00080917A00846044
:1008E00080937A0080917A00826080937A00809170
:1008F0007A00816080937A0080917A00806880938A
:100900007A001092C100E091DC01F091DD0182E0FB
:100910008083E091D801F091D9011082E091DA0151
:10092000F091DB018FEC80831092E401E091E00113
:10093000F091E10186E08083E091DE01F091DF013A
:10094000808180618083E091DE01F091DF01808110
:1009500088608083E091DE01F091DF018081806812
:100960008083E091DE01F091DF0180818F7D8083C3
:1009700082E090E09093B6018093B501AEE8B2E0DA
:1009800030E020E04CE012E054E18091B50190911C
:10099000B601281739070CF0A0C08C918C3008F0F4
:1009A0006CC0F901E056FF4F6491F901E457FF4F25
:1009B00084918823A1F090E0880F991FFC01E859E9
:1009C000FF4FE590F490FC01E458FF4F859194911E
:1009D0008FB7F894F7019081692B60838FBF8C915A
:1009E000682F70E0FB01EE0FFF1FE60FF71FE759BE
:1009F000FD4F66E0620F6F739081907C962B908321
:100A000011961C92119712961C921297642F0E94B5
:100A1000A808849F7001112470E060E06701C60E91
:100A2000D71EF601EE0FFF1FEC0DFD1DE759FD4F20
:100A3000908196FD15C06F5F7F4F6C30710571F727
:100A400081110EC0109280001093810010928500D9
:100A500010928400B19A80916F00826080936F0041
:100A6000EC918E2F90E0FC01EE0FFF1FE80FF91FB5
:100A7000E759FD4F80818064808314961C921E92FA
:100A8000139716961C921E92159717961D921D92FB
:100A90001D921C921A971B961D921D921D921C92DC
:100AA0001E9750961C921E921F9752961C921E9251
:100AB0005197BD016D5E7F4FFB01852F11928A9585
:100AC000E9F76C5E7F4FFB01852F11928A95E9F75C
:100AD0002F5F3F4FA15BBF4F58CFE2EAF0E0249178
:100AE000EEE8F0E084918823C9F090E0880F991F28
:100AF000FC01E859FF4FA591B491FC01E458FF4F68
:100B0000459154913FB7F8949C91822F80959823FA
:100B10009C93DA019C9189238C933FBF8CE0E0E0A9
:100B2000F1E0DE01DD9601900D928A95E1F78CE00F
:100B3000ECE0F1E0DE01D19601900D928A95E1F7AB
:100B40008CE0E8E1F1E0DE01959601900D928A9546
:100B5000E1F71092A00210929F0286E090E090933D
:100B60009E0280939D027E01BDE3EB0EF11CA1EA83
:100B7000B2E0AE014F5C5F4FCE018596B701645F76
:100B80007F4F9C01F701019111917F010D931D93FE
:100B9000FA0101911191AF0153961C930E93529754
:100BA000FC0101911191CF0197961C930E9396979A
:100BB0006E157F0539F78CE0E4E2F1E0DE0159962D
:100BC00001900D928A95E1F78CE0E0E3F1E0DE011F
:100BD0001D9601900D928A95E1F78CE0E8E1F1E035
:100BE000DE01119601900D928A95E1F71092EF02C5
:100BF0001092EE0286E090E09093ED028093EC027A
:100C0000CE014996A0EFB2E0AE01435F5F4F8E0187
:100C10000F5F1F4FFC0161917191CF016D937D9327
:100C2000FA0161917191AF0153967C936E93529743
:100C3000F801619171918F0197967C936E939697CD
:100C40008217930739F7B8E82B2E312C8FB7F89419
:100C5000C090C801D090C901E090CA01F090CB01CA
:100C60008FBFC092BF01D092C001E092C101F0924B
:100C7000C2018091BB019091BC01A091BD01B091D6
:100C8000BE01A7019601281B390B4A0B5B0BDA0149
:100C9000C90184369105A105B105F8F0C092BB01E8
:100CA000D092BC01E092BD01F092BE01E6EBF0E013
:100CB0008491E2EAF0E09491EEE8F0E014911123DF
:100CC00061F081110E948C00E12FF0E0EE0FFF1F18
:100CD000EE58FF4FA591B4918C918091B7019091FE
:100CE000B801A091B901B091BA01A7019601281BE2
:100CF000390B4A0B5B0BDA01C90180319742A10520
:100D0000B10508F472C0C092B701D092B801E09268
:100D1000B901F092BA01C701B60128EE33E040E014
:100D200050E00E947708CA01B9014AE00E94FD0123
:100D30008EE491E00E94F0010EE812E0F12CE12C2B
:100D40008091B5019091B601E816F9060CF04DC0FE
:100D500081E591E00E94F001C7010E94410281EB10
:100D600091E00E94F00183EA91E00E94F001D80135
:100D700013968D919C910E94410288E591E00E941A
:100D8000F001F801858196810E9441028AE691E096
:100D90000E94F001D8011B966D917D918D919C91DF
:100DA0001E974AE00E94FD018DE791E00E94F0014C
:100DB000F801878590890E9441028FE891E00E94A6
:100DC000F001D80151968D919C910E9441028EE4D0
:100DD00091E00E94F0018FE491E00E94F001BFEFEA
:100DE000EB1AFB0A015B1F4FABCF4090BF01509045
:100DF000C0016090C1017090C2010EE812E0B12CF8
:100E0000A12CC090B501D090B601AC14BD040CF07B
:100E1000CDC0F80123813481858196812817390757
:100E200009F4BEC088248394912C281739071CF03C
:100E300088248A94982CF80187819085A185B285B1
:100E400073016201C81AD90AEA0AFB0A81899289E8
:100E5000880F991F4FE44A9DF0014B9DF00D11241E
:100E6000E80FF91FE257FD4F63AD74AD88EE93E0D4
:100E70000E94B408072E000C880B990BC616D706E3
:100E8000E806F90608F48CC0D80117964D925D92D9
:100E90006D927C921A97D901A80DB91DA032E2E09B
:100EA000BE07C4F5F80181816101C81AD10887FD28
:100EB000D394CC0CDD1CCC0CDD1C0D2C000CEE08EE
:100EC000FF08828128E532E0281B310987FD339530
:100ED000220F331F220F331F032E000C440B550B20
:100EE0002C193D094E095F09A53BB10514F0A4EB8F
:100EF000B0E0B7FF02C0B0E0A0E00E946F0824EBB2
:100F000030E040E050E00E944508C20ED31EE41ECF
:100F1000F51ED601F80120812C3070F58181A101E8
:100F2000481B510987FD5395CA01880F991F880FE7
:100F3000991FA817B90784F08281E8E5F2E0E81B61
:100F4000F10987FDF395CF01880F991F880F991F2D
:100F5000A817B9070CF4CD010297880F991F4FB756
:100F6000F89430E0F901EE0FFF1FE20FF31FE7598D
:100F7000FD4F928381834FBFD80113968D919C9131
:100F80001497880E991E14969C928E92139782EA5B
:100F900091E00E94F001F801838194810E94410256
:100FA000FFEFAF1ABF0A015B1F4F2BCF4090BF016D
:100FB0005090C0016090C1017090C2010EE812E033
:100FC000B12CA12C7FE4972EAC14BD040CF050C0C2
:100FD000D8015196ED90FC9052971F968D919C915F
:100FE0005097E816F906F4F51B968D919D910D909A
:100FF000BC91A02DA3019201281B390B4A0B5B0B5E
:10100000CA01B90128EE33E040E050E00E947708C1
:101010009A9CC0019B9C900D1124F701EE0FFF1FBD
:10102000E80FF91FE257FD4F87A190A5092E000C8C
:10103000AA0BBB0B281739074A075B0798F0D801A2
:101040001B964D925D926D927C921E978389948936
:1010500016969C938E931597BFEFEB1AFB0AF80137
:10106000F28AE18AFFEFAF1ABF0A015B1F4FACCFD4
:1010700080E090E0892B09F4E9CD0E944D0188239E
:1010800009F4E4CD0E940000E1CD052E97FB1EF48B
:1010900000940E945C0857FD07D00E94770807FC67
:1010A00003D04EF40C945C085095409530952195F2
:1010B0003F4F4F4F5F4F0895909580957095619584
:1010C0007F4F8F4F9F4F08950E949908A59F900DC5
:1010D000B49F900DA49F800D911D11240895B7FF1A
:1010E0000C9464080E946408821B930B0895A1E28B
:1010F0001A2EAA1BBB1BFD010DC0AA1FBB1FEE1F92
:10110000FF1FA217B307E407F50720F0A21BB30BDC
:10111000E40BF50B661F771F881F991F1A9469F758
:1011200060957095809590959B01AC01BD01CF01B4
:101130000895A29FB001B39FC001A39F700D811DB0
:101140001124911DB29F700D811D1124911D0895D0
:10115000991B79E004C0991F961708F0961B881F09
:101160007A95C9F78095089597FB072E16F4009499
:1011700007D077FD09D00E94C80807FC05D03EF4CF
:10118000909581959F4F0895709561957F4F089533
:10119000AA1BBB1B51E107C0AA1FBB1FA617B7079D
:1011A00010F0A61BB70B881F991F5A95A9F78095B9
:1011B0009095BC01CD010895EE0FFF1F0590F491AD
:1011C000E02D0994F894FFCF00003200A6FF0A003A
:1011D000E2FF0000000019000A000F0028001900BB
:1011E0005A002D000A00B4000E012D0000003C0042
:1011F000A6FFF6FF5000000000000F000A000F00DD
:101200001E001900000000008301E3001001D0015E
:1012100041011F0133010D0A00536572766F2000F2
:101220002C2043757272656E7420416E676C653A4E
:1012300020002C2050726576696F75732044656CB0
:1012400061793A20002C204E756D204D6F76656DCA
:10125000656E74733A20002C204D6F76656D656E57
:101260007420496E6465783A20000A507265766988
:0C1270006F757320416E676C653A2000BA
:107E0000112484B714BE81FFF0D085E080938100F7
:107E100082E08093C00088E18093C10086E0809377
:107E2000C20080E18093C4008EE0C9D0259A86E02C
:107E300020E33CEF91E0309385002093840096BBD3
:107E4000B09BFECF1D9AA8958150A9F7CC24DD24C4
:107E500088248394B5E0AB2EA1E19A2EF3E0BF2EE7
:107E6000A2D0813461F49FD0082FAFD0023811F036
:107E7000013811F484E001C083E08DD089C08234E0
:107E800011F484E103C0853419F485E0A6D080C0E4
:107E9000853579F488D0E82EFF2485D0082F10E0AE
:107EA000102F00270E291F29000F111F8ED06801E7
:107EB0006FC0863521F484E090D080E0DECF843638
:107EC00009F040C070D06FD0082F6DD080E0C81688
:107ED00080E7D80618F4F601B7BEE895C0E0D1E017
:107EE00062D089930C17E1F7F0E0CF16F0E7DF06D8
:107EF00018F0F601B7BEE89568D007B600FCFDCFD4
:107F0000A601A0E0B1E02C9130E011968C91119780
:107F100090E0982F8827822B932B1296FA010C0160
:107F200087BEE89511244E5F5F4FF1E0A038BF0790
:107F300051F7F601A7BEE89507B600FCFDCF97BE46
:107F4000E89526C08437B1F42ED02DD0F82E2BD052
:107F50003CD0F601EF2C8F010F5F1F4F84911BD097
:107F6000EA94F801C1F70894C11CD11CFA94CF0C13
:107F7000D11C0EC0853739F428D08EE10CD085E9AC
:107F80000AD08FE07ACF813511F488E018D01DD067
:107F900080E101D065CF982F8091C00085FFFCCF94
:107FA0009093C60008958091C00087FFFCCF809118
:107FB000C00084FD01C0A8958091C6000895E0E648
:107FC000F0E098E1908380830895EDDF803219F02E
:107FD00088E0F5DFFFCF84E1DECF1F93182FE3DFCA
:107FE0001150E9F7F2DF1F91089580E0E8DFEE27F6
:047FF000FF270994CA
:027FFE00040479
:00000001FF
